ARM GAS  C:\Users\union\AppData\Local\Temp\ccQdjMbB.s 			page 1


   1              		.cpu cortex-m7
   2              		.eabi_attribute 27, 1
   3              		.eabi_attribute 28, 1
   4              		.eabi_attribute 20, 1
   5              		.eabi_attribute 21, 1
   6              		.eabi_attribute 23, 3
   7              		.eabi_attribute 24, 1
   8              		.eabi_attribute 25, 1
   9              		.eabi_attribute 26, 1
  10              		.eabi_attribute 30, 2
  11              		.eabi_attribute 34, 1
  12              		.eabi_attribute 18, 4
  13              		.file	"rng.c"
  14              		.text
  15              		.section	.text.MX_RNG_Init,"ax",%progbits
  16              		.align	1
  17              		.p2align 2,,3
  18              		.global	MX_RNG_Init
  19              		.arch armv7e-m
  20              		.syntax unified
  21              		.thumb
  22              		.thumb_func
  23              		.fpu fpv5-sp-d16
  25              	MX_RNG_Init:
  26              		@ args = 0, pretend = 0, frame = 0
  27              		@ frame_needed = 0, uses_anonymous_args = 0
  28 0000 08B5     		push	{r3, lr}
  29 0002 064B     		ldr	r3, .L6
  30 0004 064A     		ldr	r2, .L6+4
  31 0006 1846     		mov	r0, r3
  32 0008 1A60     		str	r2, [r3]
  33 000a FFF7FEFF 		bl	HAL_RNG_Init
  34 000e 00B9     		cbnz	r0, .L5
  35 0010 08BD     		pop	{r3, pc}
  36              	.L5:
  37 0012 BDE80840 		pop	{r3, lr}
  38 0016 FFF7FEBF 		b	Error_Handler
  39              	.L7:
  40 001a 00BF     		.align	2
  41              	.L6:
  42 001c 00000000 		.word	hrng
  43 0020 00080650 		.word	1342572544
  45              		.section	.text.HAL_RNG_MspInit,"ax",%progbits
  46              		.align	1
  47              		.p2align 2,,3
  48              		.global	HAL_RNG_MspInit
  49              		.syntax unified
  50              		.thumb
  51              		.thumb_func
  52              		.fpu fpv5-sp-d16
  54              	HAL_RNG_MspInit:
  55              		@ args = 0, pretend = 0, frame = 136
  56              		@ frame_needed = 0, uses_anonymous_args = 0
  57 0000 10B5     		push	{r4, lr}
  58 0002 A2B0     		sub	sp, sp, #136
  59 0004 0446     		mov	r4, r0
  60 0006 8422     		movs	r2, #132
ARM GAS  C:\Users\union\AppData\Local\Temp\ccQdjMbB.s 			page 2


  61 0008 0021     		movs	r1, #0
  62 000a 01A8     		add	r0, sp, #4
  63 000c FFF7FEFF 		bl	memset
  64 0010 2268     		ldr	r2, [r4]
  65 0012 114B     		ldr	r3, .L17
  66 0014 9A42     		cmp	r2, r3
  67 0016 01D0     		beq	.L15
  68 0018 22B0     		add	sp, sp, #136
  69              		@ sp needed
  70 001a 10BD     		pop	{r4, pc}
  71              	.L15:
  72 001c 4FF40013 		mov	r3, #2097152
  73 0020 01A8     		add	r0, sp, #4
  74 0022 0193     		str	r3, [sp, #4]
  75 0024 FFF7FEFF 		bl	HAL_RCCEx_PeriphCLKConfig
  76 0028 98B9     		cbnz	r0, .L16
  77              	.L10:
  78 002a 0C4B     		ldr	r3, .L17+4
  79 002c 0022     		movs	r2, #0
  80 002e 5020     		movs	r0, #80
  81 0030 5C6B     		ldr	r4, [r3, #52]
  82 0032 1146     		mov	r1, r2
  83 0034 44F04004 		orr	r4, r4, #64
  84 0038 5C63     		str	r4, [r3, #52]
  85 003a 5B6B     		ldr	r3, [r3, #52]
  86 003c 03F04003 		and	r3, r3, #64
  87 0040 0093     		str	r3, [sp]
  88 0042 009B     		ldr	r3, [sp]
  89 0044 FFF7FEFF 		bl	HAL_NVIC_SetPriority
  90 0048 5020     		movs	r0, #80
  91 004a FFF7FEFF 		bl	HAL_NVIC_EnableIRQ
  92 004e 22B0     		add	sp, sp, #136
  93              		@ sp needed
  94 0050 10BD     		pop	{r4, pc}
  95              	.L16:
  96 0052 FFF7FEFF 		bl	Error_Handler
  97 0056 E8E7     		b	.L10
  98              	.L18:
  99              		.align	2
 100              	.L17:
 101 0058 00080650 		.word	1342572544
 102 005c 00380240 		.word	1073887232
 104              		.section	.text.HAL_RNG_MspDeInit,"ax",%progbits
 105              		.align	1
 106              		.p2align 2,,3
 107              		.global	HAL_RNG_MspDeInit
 108              		.syntax unified
 109              		.thumb
 110              		.thumb_func
 111              		.fpu fpv5-sp-d16
 113              	HAL_RNG_MspDeInit:
 114              		@ args = 0, pretend = 0, frame = 0
 115              		@ frame_needed = 0, uses_anonymous_args = 0
 116              		@ link register save eliminated.
 117 0000 0268     		ldr	r2, [r0]
 118 0002 064B     		ldr	r3, .L22
 119 0004 9A42     		cmp	r2, r3
ARM GAS  C:\Users\union\AppData\Local\Temp\ccQdjMbB.s 			page 3


 120 0006 00D0     		beq	.L21
 121 0008 7047     		bx	lr
 122              	.L21:
 123 000a 054A     		ldr	r2, .L22+4
 124 000c 5020     		movs	r0, #80
 125 000e 536B     		ldr	r3, [r2, #52]
 126 0010 23F04003 		bic	r3, r3, #64
 127 0014 5363     		str	r3, [r2, #52]
 128 0016 FFF7FEBF 		b	HAL_NVIC_DisableIRQ
 129              	.L23:
 130 001a 00BF     		.align	2
 131              	.L22:
 132 001c 00080650 		.word	1342572544
 133 0020 00380240 		.word	1073887232
 135              		.comm	hrng,16,4
 136              		.comm	GetFrame_start_flag,1,1
 137              		.comm	pic,147456,4
 138              		.comm	Y,2,2
 139              		.comm	X,2,2
 140              		.ident	"GCC: (GNU MCU Eclipse ARM Embedded GCC, 64-bit) 8.2.1 20181213 (release) [gcc-8-branch rev
ARM GAS  C:\Users\union\AppData\Local\Temp\ccQdjMbB.s 			page 4


DEFINED SYMBOLS
                            *ABS*:0000000000000000 rng.c
C:\Users\union\AppData\Local\Temp\ccQdjMbB.s:16     .text.MX_RNG_Init:0000000000000000 $t
C:\Users\union\AppData\Local\Temp\ccQdjMbB.s:25     .text.MX_RNG_Init:0000000000000000 MX_RNG_Init
C:\Users\union\AppData\Local\Temp\ccQdjMbB.s:42     .text.MX_RNG_Init:000000000000001c $d
                            *COM*:0000000000000010 hrng
C:\Users\union\AppData\Local\Temp\ccQdjMbB.s:46     .text.HAL_RNG_MspInit:0000000000000000 $t
C:\Users\union\AppData\Local\Temp\ccQdjMbB.s:54     .text.HAL_RNG_MspInit:0000000000000000 HAL_RNG_MspInit
C:\Users\union\AppData\Local\Temp\ccQdjMbB.s:101    .text.HAL_RNG_MspInit:0000000000000058 $d
C:\Users\union\AppData\Local\Temp\ccQdjMbB.s:105    .text.HAL_RNG_MspDeInit:0000000000000000 $t
C:\Users\union\AppData\Local\Temp\ccQdjMbB.s:113    .text.HAL_RNG_MspDeInit:0000000000000000 HAL_RNG_MspDeInit
C:\Users\union\AppData\Local\Temp\ccQdjMbB.s:132    .text.HAL_RNG_MspDeInit:000000000000001c $d
                            *COM*:0000000000000001 GetFrame_start_flag
                            *COM*:0000000000024000 pic
                            *COM*:0000000000000002 Y
                            *COM*:0000000000000002 X

UNDEFINED SYMBOLS
HAL_RNG_Init
Error_Handler
memset
HAL_RCCEx_PeriphCLKConfig
HAL_NVIC_SetPriority
HAL_NVIC_EnableIRQ
HAL_NVIC_DisableIRQ
