:020000040800F2
:1000000000000520255B0008290600082D060008D1
:100010003106000835060008390600080000000017
:100020000000000000000000000000003D06000885
:1000300041060008000000004506000849060008C7
:10004000755B0008755B0008755B0008755B000850
:10005000755B0008755B0008755B0008755B000840
:10006000755B0008755B0008755B00084D060008AD
:10007000755B0008755B0008755B0008755B000820
:10008000755B0008755B0008755B0008755B000810
:10009000755B0008755B0008755B00085906000871
:1000A000755B0008755B0008755B0008755B0008F0
:1000B000755B0008755B0008755B0008755B0008E0
:1000C000755B0008755B0008755B0008755B0008D0
:1000D000755B0008755B0008755B0008755B0008C0
:1000E000755B0008755B0008755B0008755B0008B0
:1000F000755B0008755B0008755B0008755B0008A0
:10010000755B0008755B0008755B000861060008F8
:10011000755B0008755B0008755B0008755B00087F
:100120006D060008755B0008755B0008790600081D
:10013000755B0008755B0008755B0008755B00085F
:10014000755B0008755B0008755B0008755B00084F
:10015000755B0008755B0008755B0008755B00083F
:10016000755B0008755B00088506000891060008AD
:10017000755B00089D060008755B00080000000024
:10018000A9060008755B0008755B0008755B000830
:10019000B5060008C1060008755B0008755B00081D
:1001A000755B0008755B0008755B0008755B0008EF
:1001B000755B0008755B0008755B0008755B0008DF
:0801C000755B0008755B000887
:1001C80053B94AB9002908BF00281CBF4FF0FF31B6
:1001D8004FF0FF3000F00CB8ADF1080C6DE904CE1B
:1001E80005F0D6FDDDF804E0DDE9022304B0704730
:1001F800704700BF0348044B834202D0034B03B14E
:10020800184770470C0201200C0201200000000072
:1002180005480649091A891001EBD171491002D025
:10022800034B03B1184770470C0201200C02012050
:100238000000000010B5064C237843B9FFF7DAFF39
:10024800044B13B10448AFF300800123237010BDA1
:100258000C020120000000006860000808B5054B8A
:100268001BB105490548AFF30080BDE80840FFF71A
:10027800CFBF00BF00000000100201206860000826
:10028800704700BF10B5064C236803B110BD4FF48A
:10029800C0420449044804F01BFF0123236010BD39
:1002A8002C02012030020120C0B4032008B5064BFF
:1002B800834200D008BD4FF48041044802F0C6FFD5
:1002C800034B01221A6008BDC0B403200004024099
:1002D800280201200023274A194602F8011F13F0BB
:1002E800400105D0C3F300110131C1EBC111C9B2FE
:1002F80082F8001113F0200105D0C3F30011013179
:10030800C1EBC111C9B282F8001213F0080105D07F
:1003180003F001010131C1EBC111C9B282F8001328
:1003280013F0040105D003F001010131C1EBC11143
:10033800C9B282F8001513F0020105D003F00101DB
:100348000131C1EBC111C9B2013382F80016B3F50E
:10035800807F0ED013F08001BFD0C3F300110131AC
:10036800C1EBC111C9B202F8011F13F04001BFD09F
:10037800B8E7704747A20320F0B5002395B02A4A92
:100388004FF480300B9302210A93012406934FF413
:1003980080050C26CDE90C33CDE90233CDE90433D1
:1003A800136C43F080531364126C204B02F080529C
:1003B8000092009A1A6842F440421A60C0221B68F0
:1003C800099003F4404308940E910193082301987F
:1003D80008A8129111921393CDE90F5601F0F8FF76
:1003E80008B172B6FEE703F017F908B172B6FEE776
:1003F8004FF4805100224FF4A0530F260227069194
:1004080002A80621CDE90423CDE9026702F0E0F94C
:10041800024608B172B6FEE720464FF0004102F0EE
:10042800B1FA15B0F0BD00BF0038024000700040BE
:100438002DE9F84F03F0C0F9704CFFF79DFF05F068
:100448002BF805F0D3FA00F055F905F003F905F09B
:100458008BF905F031FB05F03FF905F061F9012052
:1004680003F0C8F9FFF736FF0A21084604F092FAAC
:100478001F226349634804F0F1FA00E000BF4FF41B
:100488008071204602F0D8FE0028F7D15E4F06465C
:100498005E4D3B685E4CDFF87C8173B34FF40051CE
:1004A800404602F0C9FE002840D0DFF86CA14FF0AA
:1004B80000095246002305EBC91E591013F0010F1D
:1004C8001EF8011004EB0100844619D0013390F89E
:1004D80000B390F800C490F80015FF2B82F802B022
:1004E80082F801C002F8031BE7D109F10109AAF556
:1004F800407AB9F1BF0FDCD13E6000BF3B68CCE762
:10050800013314F801B090F800019CF80012FF2B99
:1005180082F802B0507002F8031BCED109F101092C
:10052800AAF5407AB9F1BF0FC3D1E5E78446DFF8F1
:10053800E8E07146002205EBCC1027E013F008092B
:1005480007D003F0010909F10109C9EBC9195FFADC
:1005580089F981F8029013F0040907D003F0010922
:1005680009F10109C9EBC9195FFA89F913F0020FFA
:1005780081F801903FD003F001030133C3EBC313AB
:10058800DBB2013201F8033BFF2A2CD0531012F0E2
:100598000109C35CD2D113F0800F07D0C3F300194F
:1005A80009F10109C9EBC9195FFA89F981F80290C3
:1005B80013F0400907D0C3F3001909F10109C9EB89
:1005C800C9195FFA89F913F0200F81F8019012D048
:1005D800C3F3001301320133FF2AC3EBC313DBB2A9
:1005E80001F8033BD2D10CF1010CAEF5407EBCF111
:1005F800BF0F9ED180E70023C3E700BF001402406D
:10060800A00101208060000828020120300201209A
:1006180048A2032000080240449F032072B6FEE768
:10062800FEE700BFFEE700BFFEE700BFFEE700BF32
:10063800FEE700BF704700BF704700BF704700BFAC
:1006480003F0C6B8014802F011BF00BF24B503206B
:100658004FF4807002F004BE014804F071BE00BF80
:100668005CB40320014802F001BF00BFFCB30320C3
:10067800014802F0FBBE00BF9CB30320014800F014
:10068800EDBB00BF1CAD0320014800F0E7BB00BF75
:100698001CAD0320014800F0E1BB00BF1CAD0320E6
:1006A800014804F04BB900BF28B30320014804F007
:1006B80047BE00BFC0B40320014804F041BE00BFDC
:1006C80038B303200A4B82B01A6C42F080521A6485
:1006D8001A6C02F080520092009A5A6C42F48042DE
:1006E8005A645B6C03F480430193019B02B070472A
:1006F8000038024008B501221749184803F012FBD8
:1007080070B91749154803F027FB88B915491348EC
:1007180004F0DAF8A0B9114803F034FBB8B908BD01
:10072800FFF77CFF0E490D4803F016FB0028EDD0BB
:10073800FFF774FF0B49094804F0C6F80028EAD00F
:10074800FFF76CFF054803F01DFB0028E7D0BDE864
:100758000840FFF763BF00BF000001204CA803203A
:100768006800012090010120122301480B80704786
:100778002C000120042301480B8070474000012011
:100788000C2301480B8070472000012010B5044C51
:100798000A460448214603F0CBFE204610BD00BFA0
:1007A8001CAB0320B860000810B5044C0A46044886
:1007B800214603F0BDFE204610BD00BF1CAB032040
:1007C800CC60000810B5044C0A460448214603F0E2
:1007D800AFFE204610BD00BF1CAB03209C60000884
:1007E80010B5044C0A460448214603F0A1FE2046F1
:1007F80010BD00BF1CAB0320A8600008494A1A209E
:10080800494B12681B680880D21801D147487047C5
:10081800130F4749D8B2092B444B94BF30303730B7
:10082800096810B498700024C2F30360DC700928CA
:10083800C4B2C2F3035094BF3034373409281C7152
:100848004FF000045C71C4B2C2F3034094BF30346B
:10085800373409289C714FF00004DC71C4B2C2F32C
:10086800033094BF3034373409281C724FF0000429
:100878005C72C4B2C2F3032094BF30343734092801
:100888009C724FF00004DC72C4B2C2F3031002F091
:100898000F0294BF3034373409281C734FF000041A
:1008A8005C73C4B2D0B294BF30343734092A4FEAEB
:1008B80011729C734FF0000494BF30303730092A0E
:1008C800DC7318744FF000005874D0B2C1F303629F
:1008D80094BF30303730092A98744FF00000D8742C
:1008E800D0B2C1F30352C1F3034194BF3030373063
:1008F800092A18754FF000005875D0B2CAB294BFD3
:1009080030303730092998754FF0000094BF3032E5
:100918003732D8751A76002204485A765DF8044BA7
:10092800704700BF20F4F01F28F4F01F4400012096
:1009380024F4F01F0268474B2DE9F0419A428CB02D
:100948004FF00004CDE90644CDE908440A9402D0EA
:100958000CB0BDE8F081404D02264FF00A08032292
:100968002B6B0D2706A93D4843F004032B632B6B23
:1009780003F004030193019B2B6B43F001032B63EA
:100988002B6B03F001030293029B2B6B33432B6306
:100998002B6B06970327334007960992002603938B
:1009A800039BCDF8288002F02BFB2822022306A9FE
:1009B8002B48CDF82880CDE90623CDE9086702F059
:1009C8001FFB4FF00C0C1022022306A92448CDF877
:1009D80028C0CDE90623CDE9086702F011FB43F6EC
:1009E8002342022306A91F48CDF82880CDE9062313
:1009F800CDE9086702F004FB2B6B2246214643F041
:100A080000534A202B632B6B03F000530493049B81
:100A18002B6B43F080432B632B6B03F080430593D0
:100A2800059B02F049FE4A2002F07CFE2246214640
:100A38004B2002F041FE4B2002F074FE2246214674
:100A48004D2002F039FE4D2002F06CFE0CB0BDE8DE
:100A5800F08100BF00000440003802400008024056
:100A6800000002400004024000F57171D0F8000453
:100A780003F09AB9C1EBC10300EB8303D0F800047B
:100A8800D3F8082203F0BEB9C1EBC10300EB83031E
:100A9800D0F800049A6C03F0E9B900BFD0F800045C
:100AA80003F07EBAC16810B5044611B102290AD113
:100AB8000121D4F8000403F05BFAD4F80004BDE87F
:100AC800104003F02DBAFFF7A9FD0121F1E700BF9F
:100AD80010B50446D0F8000403F04EFA2268D2F8A4
:100AE800003E43F00103C2F8003E236A23B1034AE3
:100AF800136943F00603136110BD00BF00ED00E069
:100B0800D0F8000403F042BAD0F8000403F058BA51
:100B1800D0F8000403F052BAD0F8000403F052BA37
:100B2800D0F8000403F050BA0278012A01D000205E
:100B3800704738B5154B00210824154DC3F800043B
:100B4800C0F8C43218465963C3E90622C3E9005401
:100B5800C3E90311C3E90811C3E90B1100F0D4F884
:100B680088B94FF40071094800F004FE8022002182
:100B7800064800F0DBFD4FF4BA720121034800F08B
:100B8800D5FD002038BDFFF749FDEAE71CAD03207D
:100B98000000044008B5D0F8C40200F049F9032861
:100BA80002D8024B185C08BD032008BDD8600008B5
:100BB80010B51C46D0F8C4021346224600F07CFC4F
:100BC800032802D8024B185C10BD032010BD00BFDB
:100BD800D860000808B5D0F8C40200F0A7FC0328C4
:100BE80002D8024B185C08BD032008BDD860000875
:100BF80008B5D0F8C40200F019FD032802D8024B4A
:100C0800185C08BD032008BDD860000808B5D0F8F6
:100C1800C40200F04FFD032802D8024B185C08BD3F
:100C2800032008BDD86000080A06D0F8C43206D4EC
:100C3800C1EBC10103EB810191F8FE01704701F09E
:100C48007F01C1EBC10103EB810191F83E007047C0
:100C580008B5D0F8C40200F01BFC032802D8024BE8
:100C6800185C08BD032008BDD860000808B5D0F896
:100C7800C40200F0B7FC032802D8024B185C08BD78
:100C8800032008BDD860000808B5D0F8C40200F0F9
:100C980081FC032802D8024B185C08BD032008BD5C
:100CA800D860000810B50446A1B1012911D1026825
:100CB800D0F80004D2F8003E43F00103C2F8003E29
:100CC80003F05AF9236A23B10E4A136943F0060365
:100CD800136110BD036A63B92268D4F80004D2F81E
:100CE800003E23F00103BDE81040C2F8003E03F0C7
:100CF8004DB9FFF741FB034A136923F0060313615B
:100D0800EAE700BF00ED00E0F0B58BB0002800F086
:100D1800878090F8BD330446056803F0FF02002B76
:100D280078D0284603236F46261D84F8BD33EB6B25
:100D3800254613F4807308BF236100F037FE55F889
:100D480010EBAC46BCE80F000FC7BCE80F000FC79C
:100D58009CE8030087E80300704696E80E0000F060
:100D680023FD074630B101250223284684F8BD3308
:100D78000BB0F0BD0146206800F020FE606850B35B
:100D880039464FF0010C3A46C1EBC1034F1C04EB46
:100D9800830383F83C10A3F84210F9B283F83DC0EE
:100DA800814283F83F201A65C3E91122ECD300225F
:100DB8001146C2EBC203571C04EB830383F8FC21E2
:100DC800FAB283F8FD11824283F8FF11C3F81012BA
:100DD800C3E98111EDD36F460FCD0FC70FCD0FC7F4
:100DE80095E8030087E8030096E80E00206800F005
:100DF8001BFE05460028B6D10122636A84F8380034
:100E0800934284F8BD230FD0206801F05DFA28468C
:100E18000BB0F0BD80F8BC23FFF78CFD206881E79C
:100E2800012528460BB0F0BD204600F0A7FCEBE7F3
:100E380090F8BC33012B0ED0012310B5044600688E
:100E480084F8BC3300F0AAFD206801F02DFA0020D8
:100E580084F8BC0310BD0220704700BF2DE9F04F95
:100E6800076887B00446384601F070FA10B107B039
:100E7800BDE8F08F0546206801F036FA0028F6D064
:100E8800206801F031FA10F0020F206803D043699E
:100E980003F00203436101F027FA10F0100F2068F5
:100EA80012D0836923F0100383613E6AC6F343437B
:100EB80006F00F08022B00F06282062B00F0098270
:100EC800836943F01003836101F00EFA10F4002FD8
:100ED800206840F0268101F007FA460378D4D4F858
:100EE80000B0584601F000FA00285DDB206801F0E8
:100EF800FBF900054DD4206801F0F6F9020114D57C
:100F0800226894F8F413536903F0006353610029CD
:100F180040F0C981536D01212046C3F3830384F84F
:100F2800F413C4F8F833FFF7BDFE206801F0DCF9CC
:100F3800C30400F16C81206801F0D6F910F4005F59
:100F4800206840F04D8101F0CFF9070700F13F819B
:100F5800206801F0C9F9C60200F12F81206801F06C
:100F6800C3F9850200F11F81206801F0BDF9400036
:100F780000F11081206801F0B7F941077FF577AFDC
:100F880023685D686A0700F11B825A682A435A6021
:100F98006DE7D7F80838D90700F10E822068436951
:100FA80003F400634361A7E794F8F413D7F804281F
:100FB800012922F00102C7F8042800F083812046A5
:100FC800FFF79EFD2068436903F0004343618EE705
:100FD800206801F095F9D4F800B08146002880D047
:100FE80007F5106326464FF0000A0495CDE902374D
:100FF8005F4607E05FEA59090AF1010A06F11C0693
:1010080000F07C8119F0010FF4D05FFA8AF83846B5
:10101800414601F087F90546E80718D5039B0127E3
:101028000AF00F01029AD3F8340807FA01F102EB2B
:101038004A1220EA01002169C3F83408B94213466C
:101048009F6000F0C28141462046FFF71DFD290739
:1010580004D5029B082203EB4A139A60EA0604D5DA
:10106800029B102203EB4A139A606B0604D5029B7D
:10107800402203EB4A139A60AF0704D5029B022271
:1010880003EB4A139A602D062768B3D5D6E91423D3
:101098009342AFD8D51A706C07F5106B0597854247
:1010A800AC460BEB4A1B28BF8446DBF818100CF142
:1010B800030C89B2B1EB9C0F23D312B3934220D215
:1010C800B16C05E09A42A2EB030519D9C2B1706C64
:1010D8008542424628BF0546207CABB20090384680
:1010E80001F030F8DBF81820B16CE81C736D92B28F
:1010F80029442B44B2EB900FB1647365326DE1D291
:1011080027689342FFF476AF059B0AF00F01012090
:10111800D3F8342800FA01F122EA0102C3F834288E
:1011280068E701F0E5F806462068002E3FF4D3AEE4
:1011380004F501794FF0000807F5306B029706E0D7
:10114800760808F1010809F11C0900F0D580F707B5
:10115800F6D55FFA88FA514601F0DAF807462068B2
:10116800F90700F1EA803B0700F1CC80FA0603D5C5
:101178000BEB481310229A60BB0603D50BEB481300
:1011880020229A60BF04DBD50BEB48134FF40052C2
:101198009A60D5E72046FFF7BFFC2068436903F053
:1011A80080434361E7E620460021FFF7ADFC206855
:1011B800436903F400134361D7E620460021FFF793
:1011C800A7FC2068436903F480134361C7E62046FF
:1011D800FFF764FC2068436903F008034361B8E63D
:1011E80001F0B8F8206800F051FD2568E06001F0D2
:1011F80047FC227B0146284600F050FB2046FFF7BB
:1012080051FC2068436903F4005343619BE607F5EA
:10121800006673682068102123F00103736000F0F2
:101228000DFDD4F804C0BCF1000F1BD007F5106306
:101238004FF67F31996001351A682033654522F4ED
:10124800001243F8202CC3F8E811D3F8E02122F467
:101258000012C3F8E021D3F8E02142F00062C3F89D
:10126800E021E7D1F369226B43F00113F361F2B98E
:10127800726942F22B0313437361336943F00B0322
:101288003361D7F8003804F57172217C23F4FE63CA
:101298002068C7F8003801F073F82068436903F440
:1012A8008053436148E62046FFF712FC3DE6D6F836
:1012B800843043F00B03C6F88430736C43F00B039F
:1012C8007364DEE70021204684F8F413FFF7EAFC94
:1012D80078E6C8EBC808082204F57171384600F0B2
:1012E80047FFC6F30A1304EB88022068D2F81412E9
:1012F8000B44C2F81432E3E5029FECE5BB46049DBB
:10130800039FEEE54FEA481308210BEB030203F5B0
:10131800306391600344026C5B489968824266D9E5
:10132800090402D54FF400429A602046FFF79CFB5F
:101338002169012979D0206818E74FEA4813226902
:1013480000F5306E4FF0010C0BEB0301012A7344DA
:10135800C1F808C0D0F840C099684DD04B4A9445B0
:1013680057D0B8F1000F04D1D4F81032002B00F098
:10137800858020465146FFF77DFB2068F3E647F657
:10138800F0731E423FF49CADC8EBC808C6F30A16BA
:10139800384604EB88083246D8F8081200F0E8FE10
:1013A800D8F80822D8F81432324420681E44C8F805
:1013B8000822C8F8146283E52046FFF789FBEDE5AB
:1013C8002046FFF7ADFB2368DFE5D6E91123134478
:1013D800B364BAF1000F7FF436AE236D002B7FF4AF
:1013E80032AE04F57172206800F0CAFF2BE6204681
:1013F800FFF73AFB2068B9E60A0711D5224A944557
:101408007FF6B1AE09047FF5AEAE4FF400429A60A4
:10141800A9E60A04F9D48A06ABD520229A60A8E77F
:101428008A0608D520229A609DE604F57172206824
:1014380000F0A6FF7FE711F0280F7FF494AE124A60
:10144800944501D90904E0D41B69D9F80010D9F8EA
:101458000420C3F312030A44CB1AC9F80420C9F8BC
:101468001030B8F1000F84D1D4F81032002B80D19D
:1014780004F57172012100F083FF7AE704F57172B7
:10148800414600F07DFF74E70A30544F0A31544F4B
:1014980090F8BC23012A0DD0012210B5044684F827
:1014A8003810006884F8BC2300F0ECFE002084F8B3
:1014B800BC0310BD02207047F8B501F00F040906FF
:1014C800C4EBC4054FEA850523D405F5FE71C4EBCA
:1014D800C405002600EB8505014485F8FD614D78BB
:1014E8000C708A60CB7095B9022B01D100230B7167
:1014F80090F8BC33012B17D004460123006884F808
:10150800BC3300F0CFFB002084F8BC03F8BDCC80CE
:10151800EAE7C4EBC40605F13C01012700EB8605A8
:10152800014485F83D70DAE70220F8BD01F00F02AA
:10153800090638B5C2EBC2034FEA830319D403F591
:10154800FE71C2EBC203002400EB8303014483F85D
:10155800FD410A7090F8BC33012B19D004460123D1
:10156800006884F8BC3300F0DFFB002084F8BC037B
:1015780038BD03F13C01C2EBC204012500EB840332
:10158800014483F83D500A7090F8BC33012BE5D133
:10159800022038BD70B501F00F0500261C21C5EBEF
:1015A800C50401FB050100EB840401F5FE71C4F8D4
:1015B8000822C4F8103284F8FC51C4F8146284F884
:1015C800FD6103690068012B08BFC4F80C22DAB278
:1015D8001DB900F02DFD002070BD00F005FC0020B5
:1015E80070BD00BFF8B501F00F05012600271C21CA
:1015F800C5EBC50401FB050100EB84043C31A26482
:10160800236584F83C50676584F83D600369006889
:10161800B34208BFE264DAB21DB900F009FD002048
:10162800F8BD00F0E1FB0020F8BD00BF38B5436805
:1016380001F00F059D4233D80B061DD4C1EBC10341
:101648001C24002204FB010100EB830301F5FE7159
:1016580083F8FD2101230D708B7090F8BC239A420A
:101668001CD0044680F8BC33006800F0A7FDCDB15B
:10167800002084F8BC0338BD1C21C5EBC50301223A
:1016880001FB050100EB83033C3183F83D20012376
:101698000D708B7090F8BC239A42E2D1022038BDBD
:1016A800012038BD04F57172217C206800F068FEC5
:1016B800DEE700BF38B501F00F0243689A4233D81D
:1016C800C2EBC20309064FEA83031BD403F5FE737A
:1016D800C2EBC2040025C11800EB840383F8FD5156
:1016E80000250A708D7090F8BC33012B1AD004467F
:1016F8000123006884F8BC3300F098FD84F8BC53DB
:10170800284638BDC2EBC2043C33012500EB8404F3
:10171800C11884F83D5000250A708D7090F8BC33CC
:10172800012BE4D1022038BD012038BD30B4056852
:1017380012046C6A21B914430020AC6230BC7047B3
:10174800AB6A013904EB13440BD0002303F14000CA
:10175800013305EB8000DBB240688B4204EB104498
:10176800F4D340311443002005EB81014C6030BCB8
:10177800704700BF03680020596270470368012161
:10178800084A30B4C0F8FC1304469969002541F0B2
:10179800006184F8F45328469961596D0A4330BCB6
:1017A8005A6570470300001084B070B483B00446D3
:1017B8000C9E07AD012E85E80E002BD1826B354BB0
:1017C80022F48032139982630129C26803EA020372
:1017D800C360C36823F44013C36055D000232E4A66
:1017E800009302E02369002B2ADB009B013393421C
:1017F8000093F7D903200A9B012B07D1A36843F074
:101808000603A360A36843F02003A36003B070BC81
:1018180004B07047C36800211F4A43F04003C36007
:10182800019102E02369002B1CDB019B01339342E9
:101838000193F7D90320A36B43F48033A363DAE75A
:101848000023154A0093236943F00103236103E051
:10185800206910F00100CED0009B01339342009321
:10186800F6D9C7E700230C4A0193236943F0010323
:10187800236103E0206910F00100DCD0019B0133F3
:1018880093420193F6D9D5E7C36843F48013C36044
:10189800A4E700BFBFFFBDFF400D0300022A0346B7
:1018A80010B40CD04FF41054D968002021F47051B2
:1018B800D960DA6822435DF8044BDA607047294A38
:1018C80029480A44824237D9284A29480A44824288
:1018D80035D9284A28480A44824233D9274A00F58C
:1018E800C3300A44A03082422FD9254A25480A44E9
:1018F80082422DD9244A00F592200A4400F57870D6
:10190800824228D9214A00F5C3200A4400F52070F4
:101918008242C7D91E4A00F5B7100A4400F558702C
:1019280082421BD91B4A1C4C0A44A24294BF4FF462
:10193800E0544FF4C054B7E74FF47054B4E74FF491
:101948006054B1E74FF45054AEE74FF44054ABE75E
:101958004FF43054A8E74FF42054A5E74FF400544F
:10196800A2E700BF405327FFFF340C00401E1BFFB7
:101978003F420F0000DC0BFF7F4F1200808CF9FE06
:1019880060B6E5FE5FE3160000D3CEFEC05BB3FE93
:1019980000CA91FEE05459FEDF9C41000246002037
:1019A800936843F001039360704700BF024600202C
:1019B800936823F001039360704700BF38B5C3688C
:1019C8000129054623F0C043C36017D0A1B9C368F5
:1019D8000C4643F08043C36001E0322C0CD0012058
:1019E800044401F007FF6B69DB07F6D4A4F1320069
:1019F800B0FA80F0400938BD012038BDC368002422
:101A080043F00053C36001E0322CF5D001200444B8
:101A180001F0F0FE6B69DA07F6D5A4F13200B0FAEE
:101A280080F04009E7E700BF84B02DE9F04383B0B8
:101A3800044600200BAE159DC4F80401C4F8080143
:101A4800C4F80C01C4F81001C4F81401C4F8180152
:101A5800C4F81C01C4F82001C4F82401C4F8280102
:101A6800C4F82C01C4F83001C4F83401C4F83801B2
:101A7800C4F83C0186E80E0004F50066002D40F02D
:101A8800A380736843F002037360A36B23F400130D
:101A9800A363236843F040032360236843F0800373
:101AA80023600022109BC4F8002E012BD4F80028D4
:101AB800C4F8002800F0AE80D4F8003843F00303DF
:101AC800C4F8003800235A4A009303E02369002B26
:101AD800C0F28E80009B013393420093F6D9012017
:101AE8000023534A019302E02369002B71DB019B19
:101AF800013393420193F7D90120002232617261C8
:101B0800F261E9B104F510634FF090484FF00069B5
:101B180094464FF67F3E09E0C3F800C00132C3F88F
:101B280010C0C3F808E020338A4229D01F68002F6C
:101B3800F2DA12B1C3F80080F0E7C3F80090EDE7DD
:101B4800336900276FF080410E9A23F48073336164
:101B5800A76161611AB9A36943F01003A361A16980
:101B6800344B119A0B43A3614ABB012D03D1A269DF
:101B7800314B1343A36103B0BDE8F04304B0704791
:101B8800002204F530634FF090484FF00069944606
:101B98004FF67F3E09E0C3F800C00132C3F810C019
:101BA800C3F808E020338A42CAD01F68002FF2DA4F
:101BB80012B1C3F80080F0E7C3F80090EDE7A3691D
:101BC80043F00803A361D0E7A36B43F40013A363B6
:101BD80067E700271023164A0197236102E023696B
:101BE800DB068AD5019B013393420193F7D983E73A
:101BF80000204FF484630E4A0090236104E02069BA
:101C080010F020003FF46CAF009B01339342009327
:101C1800F5D964E70D9B23B9D4F80038C4F8003827
:101C280050E7D4F8003843F00103C4F8003849E716
:101C3800400D030000383C800400004082B00023BF
:101C4800114A019302E00369002B07DB019B013372
:101C580093420193F7D9032002B07047890100230A
:101C6800094A41F020010193016103E0036913F07F
:101C7800200305D0019B013393420193F6D9EAE78B
:101C8800184602B0704700BF400D0300D0F808386E
:101C980013F0060004D013F0020F14BF02200F2027
:101CA800704700BF70B40A7801234D7800F50064CE
:101CB80002F00F0600EB4210012D03FA06F317D0CD
:101CC800E26942EA0343E361D0F8003B1B040CD409
:101CD8008B68D0F8004BC3F30A03C978114A234331
:101CE80043EA81431A43C0F8002B002070BC7047B8
:101CF800E5692B43E361D0F800391C04F5D48B68FF
:101D0800D0F80059C3F30A03CC7806492B4343EAB9
:101D1800844343EA8252114370BCC0F80019002082
:101D2800704700BF0080001010B40B78497800EBB2
:101D3800431201292AD0D2F8001B002919DB03F02D
:101D48000F014FF48033264C8B40D0F83C18DB430E
:101D58001940C0F83C18D0F81C180B40C0F81C38C3
:101D68000020D2F8003B1C40C2F8004B5DF8044B41
:101D78007047D2F8001B41F00061C2F8001BD2F88E
:101D8800001B41F08041C2F8001BD8E7D2F80019C7
:101D980000290BDAD2F8001941F00061C2F80019E5
:101DA800D2F8001941F08041C2F80019012103F06E
:101DB8000F030C4C01FA03F3D0F83C18DB4319402D
:101DC800C0F83C18D0F81C180B40C0F81C3800208C
:101DD800D2F800391C40C2F800495DF8044B70473E
:101DE8000078F3EF007833EC2DE9F04F91F801C05B
:101DF8000F78BCF1010F4B6900EB4715CE7855D031
:101E080005F53067DFF824E2D7F810C0854C0CEAF6
:101E18000E0ED1F808C0C7F810E0D7F810E00EEAA7
:101E280004043C618BB303EB0C047F4BD7F81080A0
:101E3800012A04F1FF34B4FBFCF403EAC44EA4B253
:101E48004EEA080E0CFB04F3C7F810E03C69C3F334
:101E5800120343EA04033B6123D0012E0CD1D0F8CE
:101E6800083813F4807FD5F8003B0CBF43F00053CB
:101E780043F08053C5F8003BD5F8003B43F00443DA
:101E8800C5F8003B0020BDE8F08F3C69CCF3120395
:101E9800012A43EA04033B613B6943F400233B61A5
:101EA800DBD1CB68002BD8D07B61D6E705F5106471
:101EB800F3B3D1F80890C3F3120ED4F810A0012E92
:101EC80009EB0308DFF864B108F1FF380AEA0B0BE5
:101ED800DFF850A1C4F810B0D4F810B0B8FBF9F985
:101EE8000BEA0A0ADFF84081C4F810A008EAC948DA
:101EF800D4F8109048EA0908C4F81080D4F8108083
:101F08004EEA080EC4F810E054D0012A74D0D5F86F
:101F1800003907F00F0743F004430CFA07FCC5F833
:101F28000039D0F834784CEA0707C0F83478A9E7C4
:101F3800D4F81080012ADFF8ECE0DFF8F0C008EAF6
:101F48000E0EC4F810E0D4F810E04EF4002EC4F8D9
:101F580010E0D4F810E00EEA0C0CC4F810C03ED023
:101F6800D5F80049012E44F00444C5F8004989D148
:101F7800D0F8084814F4807FD5F800490CBF44F025
:101F8800005444F08054C5F80049002A7FF47AAF21
:101F98009BB203339A083FF475AFCB6800EB073068
:101FA80003EB820100F5805053F8042B994202603C
:101FB800FAD167E7D4F810C0012A2CF0C04CC4F855
:101FC80010C0D4F810C04CF0005CC4F810C018D091
:101FD800D5F8004944F00444C5F80049C8E70B693E
:101FE8006BB9012E10D0D5F80039002043F0044316
:101FF800C5F80039BDE8F08F0B69002BF3D0636199
:10200800EFE70B69002BFAD1D0F8083813F4807F7A
:10201800D5F800390CBF43F0005343F08053C5F89E
:102028000039E0E7FFFF07E00000F81F0000F8FFB5
:102038004B78F0B5012B0D784F6900EB451425D08E
:1020480004F530633D4E18693D4D064088681E61B1
:102058001E6935401D6107B148611D69C0F3120052
:10206800012A45F400251D611D6940EA0500186133
:1020780007D0D4F8003B43F00443C4F8003B0020E9
:10208800F0BDCA68002AF4D05A61F2E704F510637B
:10209800BFB3D3F810E0DFF8A4C0294E0EEA0C0C49
:1020A800D1F808E0C3F810C0BE45D3F810C00CEA58
:1020B80006061E6102D27746C1F814E0D3F810C0B4
:1020C800C7F31206012A4CF4002CC3F810C0D3F849
:1020D80010C046EA0C061E612BD0D4F8003943F034
:1020E8000443C4F80039002FC9D0012305F00F05B7
:1020F800D0F8342803FA05F51543C0F83458002001
:10210800F0BD1E69012A0E4D0C4805EA06051D6141
:102118001D6945F400251D611D6900EA0500186167
:1021280007D0D4F80039002043F00443C4F800393C
:10213800F0BD0A69002AF4D05A61F2E70000F8FFFE
:10214800FFFF07E010B49DF8044064B903339B080F
:1021580009D0013201EB830300EB023051F8042B64
:102168008B420260FAD100205DF8044B704700BF33
:10217800F0B402F0030792081ED000F580560C4612
:102188000023013335689A4244F8045BF9D101EB26
:10219800820277B100F58050013F0368BFB2137027
:1021A8002FB1190A012F517001D01B0C9370013700
:1021B8003A441046F0BC70470A46EAE70B784A787A
:1021C80000EB4310003318BF0123012A0CD0D0F8CC
:1021D800002B002A00DBA3B9D0F8003B43F400131E
:1021E800C0F8003B00207047D0F80029002A00DB27
:1021F80073B9D0F8003943F40013C0F8003900204F
:102208007047D0F8003B23F08043C0F8003BE3E779
:10221800D0F8003923F08043C0F80039D0F80039ED
:1022280043F40013C0F80039E9E700BFCB780A7817
:102238004978023B00EB42100129DBB211D0D0F8FB
:10224800002B012B22F40012C0F8002B01D900202A
:102258007047D0F8003B43F08053C0F8003B0020A3
:102268007047D0F80029012B22F40012C0F8002989
:10227800EDD8D0F8003943F08053C0F80039002079
:10228800704700BF034609010020D3F8002801F475
:10229800FE6122F4FE62C3F80028D3F80028114337
:1022A800C3F80018704700BF03460020D3F8002E7B
:1022B80003F5006122F00302C3F8002ED3F80438B6
:1022C80023F002034B60704703460020D3F8002E2A
:1022D80003F5006122F00302C3F8002ED3F8043896
:1022E80043F002034B6070474269806910407047B1
:1022F800D0F8183800F50060C0691840000C704725
:10230800D0F8183800F50060C069184080B27047EE
:1023180000EB411100F50060D1F8082B406910402E
:10232800704700BF00F5006200EB411010B401F0E7
:102338000F041169536B00F51060E34080685DF885
:10234800044BDB01DBB20B4318407047406900F0D7
:10235800010070470346094A002003F5006110B4E4
:10236800D3F8004922405DF8044BC3F80029D3F89C
:10237800043843F480734B60704700BF00F8FFFFD8
:1023880030B4124C00F53063056CA54203D9D0F87F
:10239800004B002C16DB002401291C611C6944F445
:1023A80000241C611C6944F018041C611C6944F079
:1023B800C0441C6106D15A61D0F8003B43F0802329
:1023C800C0F8003B002030BC704700BF0A30544FB3
:1023D800002800F0C48103682DE9F041DD0782B0D0
:1023E800044636D5A8498A6802F00C02042A00F08F
:1023F800E7808A6802F00C02082A00F0DD80636832
:10240800B3F5803F10D0002B00F00581B3F5A02F65
:102418009D4B1A6800F0938122F480321A601A6882
:1024280022F480221A6004E0974A136843F4803348
:10243800136001F0D9F9944D064606E001F0D4F98D
:10244800801BB0F5FA7F00F2E2802B689A03F5D57D
:1024580023689F0729D58C4A916811F00C0F00F06A
:102468008280916801F00C01082979D0E368002B7B
:1024780000F00E81844B1A681D4642F001021A6072
:1024880001F0B2F9064605E001F0AEF9801B02281A
:1024980000F2BD802B689807F6D52B68226923F0D7
:1024A800F80343EAC2032B6023681A071FD45D07A9
:1024B80035D5754B1A6CD00073D50025734B1A6847
:1024C800D10540F19380A368012B00F0F580002B23
:1024D80000F0B980052B6C4B1A6F00F0388122F0A0
:1024E80001021A671A6F22F004021A67E9E06369A9
:1024F800002B43D0644B5A6F1D4642F001025A67C5
:1025080001F072F9064604E001F06EF9801B02281A
:102518007DD86B6F9B07F7D523685D07C9D4A06981
:10252800D0B1594B9A6802F00C02082A00F0DD80FD
:1025380002281A6800F0158122F080721C461A6081
:1025480001F052F9054604E001F04EF9401B02285B
:102558005DD823689B01F7D4002002B0BDE8F08164
:102568005268560282D4484A1268950732D5E26802
:10257800012A2FD0012002B0BDE8F081424B5A6FEA
:102588001D4622F001025A6701F02EF9064604E0C2
:1025980001F02AF9801B022839D86B6F9F07F7D4FE
:1025A800BAE71A6C012542F080521A641B6C03F0DA
:1025B80080530193019B81E74A6850027FF51FAF62
:1025C800314A126891037FF544AF6268002A7FF4AC
:1025D80040AFCFE72C4920690A6822F0F80242EAA6
:1025E800C0020A601A077FF562AF80E71A681E46C4
:1025F80042F480721A6001F0F7F807463368DA058A
:102608003FF561AF01F0F0F8C01B6428F6D903204C
:1026180002B0BDE8F0811C4B1A681D4622F48032D6
:102628001A601A6822F480221A6001F0DDF8064662
:1026380005E001F0D9F8801BB0F5FA7FE7D82B68E0
:102648009B03F6D404E7104B41F288381A6F1E46F4
:1026580022F001021A671A6F22F004021A6701F0C9
:10266800C3F8074604E001F0BFF8C01B4045CED8C8
:10267800336F9807F7D4002D3FF451AF024A136C1B
:1026880023F0805313644AE700380240007000408A
:102698004E4B1A681D4622F001021A6001F0A4F898
:1026A800064604E001F0A0F8801B0228AFD82B688A
:1026B8009907F7D42368F8E6444A136F43F00103F7
:1026C800136701F091F8414E804641F2883705E0E2
:1026D80001F08AF8A0EB0800B84298D8336F9B073E
:1026E800F6D5002D3FF41BAFC8E701285A683FF420
:1026F80034AF02F48003E1698B427FF43BAF02F010
:102708003F03216A8B427FF435AF47F6C073616A95
:102718001340B3EB811F7FF42DAFA36A02F440315D
:102728005B08013BB1EB034F7FF424AFE36A02F08F
:102738007062B2EB036F14BF012000200DE742F472
:1027480080221A601A6842F480321A6071E642F0F8
:1027580004021A671A6F42F001021A67B1E70120F2
:10276800704722F080721D461A6001F03DF8064657
:1027780005E001F039F8801B02283FF648AF2B68C6
:102788009901F6D4A26AE3695208D4E90810013A1B
:102798000B43E16A0D4C43EA024343EA801343EAE0
:1027A800016343F000536B602B6843F080732B6028
:1027B80001F01AF8054605E001F016F8401B02285A
:1027C8003FF625AF23689A01F6D5C5E600380240E2
:1027D80078B1654A136803F00F038B420BD2136874
:1027E80023F00F030B431360136803F00F038B42AE
:1027F80001D00120704703682DE9F0419C0714D5EA
:102808005A0704D5594CA26842F4E052A2601F0747
:1028180004D5564CA26842F46042A260534C8568C5
:10282800A26822F0F0022A43A260DE0780460C4626
:1028380023D542684D4B012A1B6800F08680022A86
:102848007FD0990729D5494941F288378B680D46C9
:1028580023F0030313438B6000F0C6FF064604E031
:1028680000F0C2FF801BB84273D8AB68D8F80420C8
:1028780003F00C03B3EB820FF2D13B4A136803F069
:102888000F03A3420CD9136823F00F0323431360EB
:10289800136803F00F03A34202D00120BDE8F081C2
:1028A800D8F800305A0707D53049D8F80C008A689C
:1028B80022F4E05202438A601B0731D42B498B680B
:1028C80003F00C03042B3AD0082B18D14A684B6844
:1028D80002F03F02496813F480033CD02448C1F356
:1028E80088110023A1FB0001FDF76AFC1F4B5B6800
:1028F800C3F3014301335B00B0FBF3F300E01D4B6E
:102908001A4A1D4C92681D48C2F303121C490068FC
:10291800A25CD3400B6000F02BFF0020BDE8F081E3
:10292800124AD8F81010936823F4604343EAC103AD
:102938000E4993608B6803F00C03042BC4D10C4B35
:10294800DEE798013FF57FAFA7E79D033FF57BAF33
:10295800A3E70320A2E70748C1F38811A1FB000100
:10296800FDF72EFCC2E700BF003C024000380240E1
:1029780000366E010024F400F860000860000120B1
:1029880064000120F0B50C4689B016461F4DE8B921
:102998002B6B4FF48072022703A943F001032B63CA
:1029A8002B6B0392032203F0010305900790019318
:1029B8001748019B0497069200F022FBAB6823F0AE
:1029C800EC6333431C43AC6009B0F0BD2B6B0222AF
:1029D8004FF40070032143F0040344EAC6042B6358
:1029E8002B6B0492002203F004030390069103A9C1
:1029F80002930848029B0592079200F001FBA96820
:102A080021F078410C43AC6009B0F0BD00380240B9
:102A18000000024000080240164908B58B6803F020
:102A28000C03042B1BD0082B17D14A684B6802F003
:102A38003F02496813F4800313D10F48C1F388118A
:102A4800A1FB0001FDF7BCFB0A4B5B68C3F3014324
:102A580001335B00B0FBF3F008BD074808BD074829
:102A680008BD0648C1F388110023A1FB0001FDF74A
:102A7800A7FBE9E7003802400024F40000366E01A5
:102A8800014B1868704700BF64000120044B054AD9
:102A98009B680549C3F382230868D35CD840704714
:102AA800003802400861000864000120044B054A10
:102AB8009B680549C3F342330868D35CD840704724
:102AC80000380240086100086400012003682DE90D
:102AD800F04313F0010683B004460BD0BB4A91685B
:102AE80021F400019160466B91683143B6FA86F68D
:102AF8007609916013F4002510D0B449E56BD1F83C
:102B08008C20B5F5801F22F4401242EA0502C1F874
:102B18008C2000F01982B5FA85F56D09D90210D517
:102B2800AA48216CD0F88C20B1F5800F22F440021D
:102B380042EA0102C0F88C2000F00982002908BF8F
:102B4800012513F0807F18BF01269A0600F1B6818F
:102B5800D9060CD59D4AD2F88C1021F08071C2F8A4
:102B68008C10D2F88C10A06B0143C2F88C105A0458
:102B780008D59649606ED1F8902022F4403202437D
:102B8800C1F890201F0408D59049A06ED1F8902074
:102B980022F440220243C1F89020D80308D58B497B
:102BA800E06ED1F8902022F440120243C1F8902040
:102BB800990308D58549206FD1F8902022F4400266
:102BC8000243C1F890205A0608D58049606CD1F8B4
:102BD800902022F003020243C1F890201F0608D576
:102BE8007A49A06CD1F8902022F00C020243C1F877
:102BF8009020D80508D57549E06CD1F8902022F0CE
:102C080030020243C1F89020990508D56F49206D1C
:102C1800D1F8902022F0C0020243C1F890205A0552
:102C280008D56A49606DD1F8902022F440720243B9
:102C3800C1F890201F0508D56449A06DD1F89020EF
:102C480022F440620243C1F89020D80408D55F49B5
:102C5800E06DD1F8902022F440520243C1F8902050
:102C6800990408D55949206ED1F8902022F44042A1
:102C78000243C1F890205A0208D55449A06FD1F8F0
:102C8800902022F080620243C1F890209F020CD568
:102C98004E49E06FD1F89020B0F1006F22F0006249
:102CA80008BF01250243C1F8902013F0080F18BF90
:102CB8000125580308D54549606FD1F8902022F0C6
:102CC80040720243C1F8902019026AD4012E01D043
:102CD8009A0160D53D4B1A681E4622F080621A6040
:102CE80000F082FD074605E000F07EFDC01B642869
:102CF80000F2E08033681B01F6D42368DF0712D5A1
:102D0800626B82B9D6F88420D6F8847002F4403217
:102D1800606807F07067A1683A4342EA801242EAA5
:102D28000172C6F884201E0304D5E26BB2F5801F39
:102D380000F01E81D80204D5226CB2F5800F00F095
:102D48001781D90111D5214E6068D6F88420D6F8AC
:102D5800847002F07062216907F0E0473A4342EA62
:102D6800801242EA0142C6F884209A0100F1F180FB
:102D7800164B1A681E4642F080621A6000F034FD55
:102D8800074605E000F030FDC01B642800F2928081
:102D980033681B01F6D5012D0ED0002003B0BDE825
:102DA800F0830A49D4F88000D1F8902022F08052AC
:102DB8000243C1F8902089E7044B1A681D4622F0A7
:102DC80080521A6000F010FD064606E00038024006
:102DD80000F00AFD801B64286CD82B689F00F7D48C
:102DE80023681D0340F1FE80E26B002A40F0FA8060
:102DF80080496569D1F88820D1F8886002F44032AA
:102E0800A06906F0E046324342EA851242EA0062CF
:102E1800C1F88820D1F88C20A06A22F4F852013831
:102E280042EA0022C1F88C20990215D5E26FB2F16E
:102E3800006F11D16F496569D1F88820D1F8886091
:102E480002F07062206A06F0E046324342EA8512D8
:102E580042EA0042C1F888201A0719D5654A65690F
:102E6800D2F88810D2F8883001F07061E06903F474
:102E780040330B4343EA851343EA0073C2F88830B2
:102E8800D2F88C30E16A23F440330B43C2F88C301B
:102E9800584B1A681C4642F080521A6000F0A4FC95
:102EA800054623689B003FF578AF00F09DFC401B6A
:102EB8006428F6D9032003B0BDE8F0834D4A4E4B91
:102EC800116C1F4641F080511164126C02F080525F
:102ED8000192019A1A6842F480721A6000F084FC28
:102EE800804605E000F080FCA0EB08006428E1D8EB
:102EF8003B68DB05F6D53F4A236B116F03F440703E
:102F080011F4407110D081420ED0116F176F21F467
:102F1800407147F480371767176F27F480371767B2
:102F28001167116FCF0748D4B0F5407F3CD03149C5
:102F38008A6822F4F8128A602E4AC3F30B03116FD1
:102F48000B431367236803E600250126E6E50126FF
:102F5800F7E5236962681B04D4E9021043EA821387
:102F6800244A43EA006343EA0173C2F88430FFE667
:102F7800204E6068D6F88420D6F8847002F4403277
:102F8800E16807F0E0473A4342EA801242EA016208
:102F9800C6F88420D6F88C10626A21F01F01013A25
:102FA8000A43C6F88C20CCE61248144982681940B6
:102FB80022F4F8120A438260BEE7174641F28838C5
:102FC80000F012FC814606E000F00EFCA0EB0900C0
:102FD80040453FF66FAF3B6F9807F5D5236B03F479
:102FE8004070A1E7D8027FF51FAF226C002A7FF45A
:102FF8001BAFFDE60038024000700040FFFCFF0FE9
:103008002DE9F04FD1F800B087B00023DFF824A2F3
:10301800D9467E4F8B4603E00133102B00F08A809F
:1030280001229A4009EA02018A42F5D10324DBF819
:1030380004504FEA430C05EA040204FA0CF4561E45
:10304800E443012E79D9032A40F08B80066802FAFE
:103058000CF215F4403F04EA060442EA0402026056
:10306800DAD0DAF8446023F0030C03F003020F24EB
:1030780046F480460CF1804C9200CAF844600CF586
:103088009C3CDAF8446004FA02FE06F48046059691
:103098005F4E059CB042DCF8084024EA0E0428D0B4
:1030A80006F58066B04200F088805A4EB04200F0C3
:1030B8008980594EB04200F08A80584EB04200F0E4
:1030C8008B80574EB04200F09180564EB04200F0CF
:1030D8009280554EB04200F08480544EB04200F0C9
:1030E8008F80534EB0420CBF09260A2606FA02F218
:1030F8001443CCF80840EE02BA686FEA010403F101
:10310800010354BF22400A43AE02BA60FA6854BFB2
:1031180022400A43AE03FA607A6854BF22400A4349
:10312800ED037A603A6854BF22400A43102B3A6094
:103138007FF476AF07B0BDE8F08F8668C5F3001E50
:1031480006EA0408DBF80C600EFA03FE06FA0CF631
:1031580046EA08068660466826EA01064EEA06063A
:103168004660C668022A06EA040EDBF8086006FA1A
:103178000CF646EA0E06C6607FF468AF4FEAD30E37
:1031880003F0070800EB8E0E4FEA8808DEF820608F
:1031980001960F2606FA08F60296DBF8106006FA82
:1031A80008F60396019EB046029E28EA0608039E8A
:1031B80046EA0806CEF8206048E7012606FA02F239
:1031C800144396E7022606FA02F2144391E703260F
:1031D80006FA02F214438CE7042606FA02F21443B4
:1031E80087E7072606FA02F2144382E7052606FA5D
:1031F80002F214437DE7062606FA02F2144378E742
:10320800082606FA02F2144373E700BF003C0140A7
:103218000000024000080240000C0240001002407A
:103228000014024000180240001C02400020024026
:1032380000240240003802400369194214BF0120EB
:103248000020704702B9090481617047436901EAA7
:10325800030221EA030141EA02418161704700BF8C
:10326800044A5169014200D1704708B55061FDF721
:1032780009F808BD003C0140F8B5044600F0B4FA6E
:10328800002C58D0236802220021054684F83520F6
:103298001A6884F8341022F001021A601A68D007FC
:1032A80010D503E023681A68D1070BD500F09CFA03
:1032B800401B0528F6D9032320221846626584F8A6
:1032C8003530F8BDD4E90120E16802431F68D4E92C
:1032D80004050A430243206AD4E906612A43324DB1
:1032E80032433D400A43616A0243042942EA050227
:1032F80023D01A605A6922F007021143D8B22B4A28
:10330800596110382A492B4DA2FB006219405F28E9
:103318004FF001064FEA12134FF0000288BF043144
:10332800ED5C3F23A1651046AB40E5658B606265A7
:1033380084F83560F8BD0120F8BDD4E90B01A56A11
:1033480001430A431A60596921F00701294341F0F2
:1033580004010028D2D07EB1B6F5005F17D0022D47
:1033680003D9032DCAD1C201C8D50123402218466A
:10337800626584F83530F8BD012D04D0002DF2D0F7
:10338800022DBBD1EFE7B0F1C07FB7D1EDE7032D38
:10339800B4D801A252F825F0733300086F3300083F
:1033A800733300088F3300083F8010F0ABAAAAAA35
:1033B80000FCFFFFDC600008F0B490F83440866D34
:1033C800012C3AD0012590F83540AC4280F83450B1
:1033D80006D00022022380F834201846F0BC70473B
:1033E80004680227002580F83570456587682568D8
:1033F800402F25F48025256063601BD0A160E26022
:10340800C16D3F23026C8B40B360236843F0160301
:103418002360636943F0800363611AB1236843F052
:10342800080323602268002342F001021846226044
:10343800F0BC7047A260E160E2E70223F0BC1846E6
:10344800704700BF90F835200346022A03D0802237
:1034580001205A65704702680521002083F835105D
:10346800136823F001031360704700BFF0B50446EA
:1034780083B000200822664901900E68D4E91673CB
:103488009A403D682A4203D021680868400778D4EA
:1034980001229A402A4203D02168496908066AD461
:1034A80004229A402A4203D02168096889075CD41B
:1034B80010229A402A4203D021680868000741D4A4
:1034C80020229A402A4214D021680868C00610D5E4
:1034D800BA6094F83520052A63D00B6813F4802F5E
:1034E8000B687ED0190340F18980E36B0BB120464D
:1034F8009847636D23B3636DDA071AD522680521EF
:10350800444B84F83510A3FB0636136823F00103F7
:10351800B60A136002E01368DB0704D5019B013388
:10352800B3420193F7D90122002384F8352084F8A7
:103538003430E36C23B1204603B0BDE8F0401847AF
:1035480003B0F0BDBA600A6812F4802F0A6822D16D
:10355800D20503D40A6822F008020A60226C002A05
:10356800AED020469047E36DAAE7BA60626D42F09C
:10357800040262659CE7BA60626D42F0020262650D
:103588008EE7086820F004000860BA60626D42F0B7
:10359800010262657CE71103E0D5A26C002AE0D144
:1035A8008EE70A68206C22F016020A604A6922F047
:1035B80080024A6138B30A6822F008020A603F2292
:1035C8000120002102FA03F3226DBB6084F8350064
:1035D80084F83410002AB3D0204603B0BDE8F04088
:1035E800104713F4807380D10A68012022F010027A
:1035F8000A6084F8343084F8350076E7636C002B71
:103608007FF475AF75E7A26C002AD4D1D7E700BF65
:1036180064000120B5814E1B1B4A1C4B116C41F004
:10362800805130B5116483B0126C1C4602F0805290
:103638000192019A1A6842F480321A6000F0D4F8B4
:10364800054605E000F0D0F8401BB0F57A7F17D8A2
:103658006368DA03F6D523680C4D43F4003323601E
:1036680000F0C2F8044605E000F0BEF8001BB0F513
:103678007A7F05D86B689B03F6D5002003B030BD70
:10368800032003B030BD00BF003802400070004086
:1036980007490002074BCA6800F4E06010B44FF60F
:1036A800FF0422405DF8044B10430343CB6070478E
:1036B80000ED00E00000FA05174B30B4DC68C4F3F5
:1036C8000224C4F10705231D042D28BF0425062B59
:1036D80018D9033C4FF0FF33A34022EA03024FF00E
:1036E800FF33002803FA05F321EA030303FA04F37E
:1036F80043EA02034FEA0313DBB206DB074A13541B
:1037080030BC704700221446E9E700F00F00044A75
:10371800135430BC704700BF00ED00E000E400E047
:1037280014ED00E0002807DB00F01F010123400929
:10373800024A8B4042F82030704700BF00E100E0A9
:103748000138B0F1807F0DD2074B0022072130B439
:10375800F025064C5860104684F823509A6019608A
:1037680030BC70470120704710E000E000ED00E039
:103778000E4A4FF47A730E491278B3FBF2F310B580
:1037880004460868B0FBF3F0FFF7DAFF08B90F2C1E
:1037980001D9012010BD002221464FF0FF30FFF76C
:1037A8008BFF044B00201C6010BD00BF5E00012091
:1037B800640001206000012008B50320FFF768FFBE
:1037C8000020FFF7D5FFFCF77DFF002008BD00BFF4
:1037D800034A044B11681B780B441360704700BF01
:1037E80020B103205E000120014B1868704700BF1C
:1037F80020B1032038B50446FFF7F6FF0546631CE1
:1038080002D0044B1B781C44FFF7EEFF401BA0427C
:10381800FAD338BD5E000120F8B5044683689F4995
:10382800E669E7689E4DD0E904201A4323680243FD
:103838001868AB4201EA000142EA060242EA0102C4
:10384800A1691A605868226A20F4405042EA0102CD
:1038580040EA07005860996821F4306142EA0102A1
:103868009A603FD08F4A93421AD08F4A934200F011
:10387800D4808E4A934200F0DD808D4A934269D00D
:103888008C4A934250D08C4A934200F0F5808B4A80
:10389800934200F0E08001200023C4E91933F8BD09
:1038A800874BB6F5004F874AD3F8903003F00C03E6
:1038B800D35C21D0082BEED801A252F823F000BF28
:1038C800B53900084D390008D33900089F38000879
:1038D800C13900089F3800089F3800089F38000841
:1038E80081390008764BB6F5004F774AD3F8903007
:1038F80003F00303D35CDDD1082BCCD801A252F826
:1039080023F000BF0B3A0008173A0008073A0008EE
:103918009F3800081D3A00089F3800089F380008A3
:103928009F380008D7390008654BD3F8903003F466
:103938004063B3F5806F3CD041D8002BABD1B6F5CE
:10394800004F64D0FFF7B2F8C0B900230020C4E9E3
:103958001933F8BD5A4BD3F8903003F44073B3F5DC
:10396800807F26D01CD9B3F5007F2BD0B3F5407FDC
:1039780091D1B6F5004F2AD04FF4004063684FF656
:10398800EF7200EB5300B0FBF3F3A3F11001914287
:1039980081D822680020D3600023C4E91933F8BD18
:1039A800002B7FF478AFB6F5004F2AD0FFF76EF8FA
:1039B800CAE7B6F5004F2DD0FFF72EF8C4E7B3F5E8
:1039C800006F44D1B6F5004F19D04048D6E74FF400
:1039D800803362684FF6EF7103EB5203B3FBF2F3E7
:1039E800A3F110028A423FF656AF23F00F02C3F349
:1039F80042032168002092B21343CB604CE7344B5A
:103A0800E7E7FFF743F800289FD04300E1E7FFF717
:103A18004DF8F8E7FFF700F8F5E7294BD3F89030B1
:103A280003F03003102BC4D0BAD9202BCAD0302BC6
:103A38009FD030E7224BD3F8903003F0C003402BDF
:103A4800B7D0ADD9802BBDD0C02B92D023E7B3F52A
:103A5800406F8ED01FE71A4BD3F8903003F44043E1
:103A6800B3F5804FA5D09BD9B3F5004FAAD0B3F5D5
:103A7800404F3FF47EAF0EE7114BD3F8903003F47C
:103A88004053B3F5805F94D08AD9B3F5005F99D0DD
:103A9800B3F5405F3FF46DAFFDE600BFF369FFEF9C
:103AA800001001400044004000480040004C004025
:103AB800005000400014014000780040007C0040A5
:103AC80000380240E8600008E46000080024F400C0
:103AD8000048E801436ADA0710B406D50168846A29
:103AE8004A6822F4003222434A609C0706D50168DE
:103AF800C46A4A6822F4803222434A60590706D5CC
:103B08000168046B4A6822F4802222434A601A073B
:103B180006D50168446B4A6822F4004222434A6091
:103B2800DC0606D50168846B8A6822F48052224339
:103B38008A60990606D50168C46B8A6822F4005227
:103B480022438A605A060AD50168046C4A68B4F5AB
:103B5800801F22F4801242EA04024A600BD01B063E
:103B680006D50268816C536823F400230B43536025
:103B78005DF8044B70474A68446C22F4C002224343
:103B88004A60ECE72DE9F843089F04687D1C0AD1D8
:103B9800E36931EA03030CBF012300239A42F7D0FB
:103BA8000020BDE8F8839846E36916460D4631EAD9
:103BB800030381460CBF012300239A42F0D1FFF78B
:103BC80013FEA0EB0800D9F80020B8420FD877B14F
:103BD8001368590702D5D3691B0525D4D36935EA7B
:103BE80003030CBF01230023B342E8D0D8E752E80F
:103BF800003F23F4D07342E800310029F7D102F1E5
:103C0800080353E8003F23F0010302F1080040E8ED
:103C180000310029F3D1202389F874100320C9F852
:103C28007830C9F87C30BCE74FF40063136252E87F
:103C3800003F23F4D07342E800310029F7D102F1A4
:103C4800080353E8003F23F0010302F1080040E8AD
:103C580000310029F3D1202389F874100320C9F812
:103C68007830C9F87C30C9F880309AE700284DD000
:103C7800836F70B5044682B0002B42D0226824239B
:103C88002046A367136823F001031360FFF7C4FD00
:103C9800012833D0636A6BBB23680025596821F477
:103CA80090415960996821F02A019960196841F09A
:103CB80001011960C4F88050FFF796FD2268126868
:103CC800130709D4002320221846A26784F8743009
:103CD800E267236602B070BD6FF07E4603462A464F
:103CE8004FF4001100962046FFF74CFF0028E9D05A
:103CF8000320EFE72046FFF7EDFECDE7012002B0F5
:103D080070BD80F8743001F08FFEB7E7012070476E
:103D1800034AD2F8883043F47003C2F888307047F9
:103D280000ED00E00346A8B1D0F8B80210B10020B9
:103D3800C3F8B802D3F8CC0210B10020C3F8CC0203
:103D480009B1C3F8B41201211A70184683F89C12FD
:103D5800FCF7EABE0320704730B5002483B0ADF805
:103D6800064059B10546C0F8B8128B6A0DF1060035
:103D78009847C5F8CC02204603B030BD032420463E
:103D880003B030BDFCF706BFD0F8B8320BB11B68E2
:103D980018470320704700BF08B5D0F8B8320BB1F8
:103DA8005B689847002008BD38B500F2AA2504468C
:103DB800284600F09DFB94F8AA120120B4F8B0221E
:103DC80001F01F038342C4E9A50209D0A3B1022B65
:103DD8000CD0204601F08001BDE83840FCF708BF50
:103DE80029462046BDE8384000F0AABA29462046B0
:103DF800BDE8384000F0DCBA29462046BDE8384026
:103E080000F0F0B870B5044631B90D46D0F89412F8
:103E180003290ED0002070BDD0F8B822926932B1C3
:103E280090F89C32032B02D1BDE870401047032064
:103E380070BD1146D0E9573293420DD8D0F8B83248
:103E48001B6923B190F89C22032A00D19847204689
:103E580000F0C2FB0020DEE79B1A9A42C0F85C31F2
:103E680028BF1A4600F0B0FB284670BD70B504465E
:103E780082B061B9D0F89452022D17D094F8A032CC
:103E88000020012B01D184F8A00202B070BDD0F847
:103E9800B8325B693BB190F89C22032A03D102B087
:103EA800BDE870401847032002B070BDD0E907563E
:103EB800B54210D820D0D4F8B832DB681BB194F8DA
:103EC8009C22032A15D080212046FCF791FE20462B
:103ED80000F08EFBD2E7AD1B01911146C5612A4661
:103EE80000F05AFB019B20461A461946FCF7CCFE07
:103EF800C4E720469847E6E782699542DBD8D0F8C0
:103F08009852AA42D7D20A46019100F045FB019B7C
:103F18002046C4F898321A461946FCF7B5FEADE7B4
:103F280000210122D0F8BC3270B5044680F89C22EA
:103F3800C0F894124160C0F8A4121BB1D0F8B8328E
:103F48005B68984740250022012620462B461146EB
:103F5800FCF72EFEA4F86461C4F860512B460022D9
:103F680080212046FCF724FEA6842562002070BD2F
:103F780001740020704700BF03460421002093F815
:103F88009C2283F89C1283F89D22704790F89C32FB
:103F9800042B03D190F89D3280F89C3200207047A2
:103FA80090F89C22032A01D00020704708B5D0F869
:103FB800B832DB6903B19847002008BD002070477C
:103FC80000207047002070470121D0F8B82280F8FF
:103FD8009C122AB15268017908B59047002008BDA3
:103FE8000020704770B50B7882B00D46044603F088
:103FF8006003202B0ED0402B0CD0ABB18021204683
:10400800FCF7F6FD002120460D46FCF7F1FD284699
:1040180002B070BDD4F8B832294620469B6898474C
:104028000546284602B070BD4B78092BE6D801A298
:1040380052F823F09B400008C940000805400008DA
:10404800E540000805400008F14000082D4100083F
:104058000540000851410008654000088978AE4EC7
:104068000129317000F2438190F89C32022B00F054
:10407800F880032B00F0068180210325FCF7B8FDAA
:1040880000212046FCF7B4FD31782046FFF784FE76
:10409800BDE790F89C32013B022BAFD8CB88022BAE
:1040A800ACD10122D0F8A432C2600BB10323C360A3
:1040B800022204F10C012046002500F05FFAA6E771
:1040C80090F89C32013B022B98D84B880025012B95
:1040D8009DD1C0F8A45200F07FFA98E74B88012BD5
:1040E80000F0F880002592E78B88002B86D1CE88D7
:1040F800002E83D14D887F2D80D890F89C32032BD9
:104108003FF47CAFE9B280F89E12FCF7A1FD20468F
:1041180000F062FA002D00F00F810223354684F882
:104128009C3274E74A880021130AADF80610013B57
:104138000E2B6FD8DFE803F0545C386E6E4B406E80
:104148006E6E6E6E6E6E1C00CA88012A7FF456AFC2
:1041580090F89C32002B3FF451AF022B40F2C08004
:10416800032B7FF44BAF011D002500F007FA4EE743
:10417800D0F8B432DB69002B4CD00DF10601207C5D
:104188009847EB88002B00F0A180BDF80620002A94
:1041980040D093420146204628BF13461A46ADF840
:1041A800063000F0EBF99DE7D2B2052A32D8DFE8F5
:1041B80002F02C524C46403A037C5BBBD0F8B83234
:1041C8000DF106001B6B984707234370D9E7037C62
:1041D80003BBD0F8B8320DF106005B6B9847D0E707
:1041E800D0F8B4320DF10601007C1B689847C8E787
:1041F800027CD0F8B832002A40F090809B6A0DF11A
:104208000600984702234370BBE7D0F8B4325B68D6
:10421800002BB2D180212046FCF7EAFC2046002181
:10422800FCF7E6FC5EE7D0F8B4329B69002BA4D11A
:10423800F0E7D0F8B4325B69002B9ED1EAE7D0F8FA
:10424800B4321B69002B98D1E4E7D0F8B432DB68AC
:10425800002B92D1DEE7D0F8B4329B68002B8CD1CA
:10426800D8E771B301214160FFF78EFD05460028AC
:104278005BD080212046FCF7BBFC20460021FCF7E0
:10428800B7FCC4E600293BD04168012919D0C9B25E
:10429800FFF782FD317820466160FFF775FD05461E
:1042A80078B180212046FCF7A3FC00212046FCF7CA
:1042B8009FFC21792046FFF76FFD022384F89C328A
:1042C800A5E62046002500F087F9A0E6204600F084
:1042D80083F907E7C0F8A432002500F07DF996E6D7
:1042E8000025014641F8085F00F048F98FE6802173
:1042F8000325FCF77DFC20460021FCF779FC86E6C7
:10430800022341600D4680F89C32FFF745FD2046A8
:1043180000F062F97BE600BF30620120DB6A0DF134
:1043280006009847022343702BE7204600F054F913
:10433800032384F89C326AE6012384F89C3266E6FB
:1043480070B50B780D46044603F06003202B0CD0A3
:10435800402B0AD04BB100268021FCF749FC2046AF
:104368003146FCF745FC304670BD94F89C32013B61
:10437800022B12D82B79012B0FD8D4F8B832294642
:1043880020469B689847EB880646002BEBD100280F
:10439800E9D1204600F020F9E5E780212046FCF726
:1043A80027FC002120460E46FCF722FC304670BD53
:1043B80070B50B78054603F06003202B0DD0402B19
:1043C8000BD00C4683B180212846FCF711FC284607
:1043D8000021FCF70DFC002070BDD5F8B832284646
:1043E8009B68BDE8704018474B788A88012BD1B28A
:1043F80035D093B1032BE6D190F89C32022B43D0F1
:10440800032BE0D1638823B94A0602D0E388002B46
:104418006BD0284600F0E0F8DDE790F89C32022BDC
:104428003BD0032BCFD101F00F03120603EB83031C
:1044380000EB830343D4B3F86431002BC3D001F0FD
:104448007F03142404FB030404F5AA74002B41D150
:10445800236021462846022200F090F8BBE790F836
:104468009C32022B10D0032BADD16388002BB2D124
:104478004E0635D1284600F0AFF8D5F8B8322146B7
:1044880028469B689847A6E74B069CD0FCF7B0FBEC
:1044980028468021FCF7ACFB9DE7480693D111061E
:1044A8004FF0000428464FF002024CBF05F11403F8
:1044B80005F5AA7319461C6000F060F88BE79B8C21
:1044C800002B80D001F07F035C1C04EB840400EB1C
:1044D8008404BBE72846FCF7A7FB20B10123B7E714
:1044E800FCF794FBC6E72060B3E7FCF781FB90E795
:1044F8000B7803704B784370CA788B7843EA0223B1
:1045080043804A790B7943EA02238380CA798B79FD
:1045180043EA0223C380704710B504468021FCF7A4
:1045280067FB00212046BDE81040FCF761BB00BFD7
:1045380008B3037870B4FBB10446C0F10106A319AF
:1045480014F8015FDBB2002DF9D101335B000324BD
:1045580013800B704C7004785CB1022300255A1C40
:10456800CC540233D2B2DBB28D5410F8014F002C78
:10457800F5D170BC704770470223E8E770B515465F
:1045880002260A46002185612B46C561C0F894625F
:10459800FCF76CFB002070BD08B513460A460021E5
:1045A800FCF764FB002008BD70B5154603260A46D3
:1045B8000021C0F858512B46C0F85C51C0F89462ED
:1045C800FCF762FB002070BD08B513460A460021BF
:1045D800FCF75AFB002008BD08B504220023C0F8E8
:1045E800942219461A46FCF741FB002008BD00BF7B
:1045F80008B505220023C0F8942219461A46FCF78C
:1046080043FB002008BD00BF002070470020704712
:10461800A723038000487047A000012038B5012275
:104628004FF4806381210446FCF7C2FA1C2001F094
:10463800C3FAC4F8BC0260B1034600220024002576
:10464800026010461A719A61C3E90422C3E902455F
:1046580038BD032038BD00BF10B504468121FCF7E2
:10466800B9FAD4F8BC0220B101F0AEFA0023C4F8BC
:10467800BC32002010BD00BF2DE9F047D0E9AF469D
:10468800ADF5806D07462579022D17D0E846E2681A
:104698000223032D02F0010288F8003088F8012077
:1046A80023D0424638468121FCF7E0FA2379032BD0
:1046B80036D000200DF5806DBDE8F087002E69D05A
:1046C800E846B36840469847002861D0E36800216F
:1046D80020610322D8F8000003F001032271C4E925
:1046E800050188F8013088F80050A1690DF1020031
:1046F80002234FF080092F4A4FF0C80E6FF0C70C05
:1047080065698D42CDD925691DB3695C0170A169C0
:10471800013301300131B3F5806FA161F0D1C0E7F9
:10472800D4E905329A42C4D3A3680133A36036B1F1
:10473800F36823B1206910B1984700232361E36827
:104748000222002001332271E3600DF5806DBDE87F
:10475800F087C90714D4A568A2FB05A1C90801EB15
:104768008101A5EB41010CFB01F505290EFB01F1C7
:1047780005F5FA6507D9A2FB0515C5F38701C5E755
:1047880080F80090C3E7A2FB0151C1F38701BDE7A0
:1047980025797CE7E368E8464FF41031032203F0FB
:1047A800010326612271C4E9051688F8013088F8EA
:1047B80000509AE7CDCCCCCC30B5D0F8BC4283B011
:1047C8002379012B02D0002003B030BD022501AAB5
:1047D80081212B46ADF80450FCF748FA00202571DA
:1047E80003B030BDA723038000487047A000012014
:1047F80038B5D0F8BC220546304B1A600B7813F058
:10480800600426D0202C1FD14B78832B11D8812B04
:1048180011D2012B18D1CA88A2B14B88B3F5807F79
:1048280037D0B3F5007F0DD12549FFF7BDFE002035
:1048380038BD872B08D14B88B3F5807F36D0B3F5C8
:10484800007F20D0002038BD2846FFF765FE0320F2
:1048580038BD4B780A2B10D00B2BF3D18B78D0F8BE
:10486800C012012B136019D014710029EAD04B68CB
:10487800002BE7D09847204638BD11460122FFF7A4
:104888007DFE204638BDCA8828460D49FFF776FECA
:10489800D8E70C49FFF788FE002038BD1371D460B3
:1048A8000029CFD00B68002BE4D1CBE7CA88284673
:1048B8000449FFF763FE002038BD00BF24B1032080
:1048C800480101206C01012009B1C0F8C012002084
:1048D800704700BF704700BF704700BF10B5802108
:1048E80004460448FEF7B2FC4FF410330248236034
:1048F80010BD00BF0004024044620120704700BFA1
:10490800B0B138B54379044603F0FF0263B12168BA
:1049180002230022012563710B68104643F004034B
:104928000B606571A26038BD027100F0A5FEEEE76C
:1049380001207047704700BF704700BF03685A687E
:10494800920610B504461CD45A6812F040020CD1E5
:104958005968C90708D5196821F0080119609968CC
:104968004379C160042B0FD110BD08238360042351
:1049780020466371FFF7E0FF23686FF060025A601A
:1049880010BD10238360F2E7012302714371FFF722
:10499800D1FF10BD024A034B10801980704700BF39
:1049A80048A8032044A203202DE9F04F294F83B0E3
:1049B8000B78B7F800C00CEB0304B4F5807F3ADC41
:1049C800DFF8949091F801E0B9F800507544C02DD3
:1049D80031DC904601900D46BEF1000F26D0A0F1C3
:1049E800200A00240AFB0E42696831F81260C3B13C
:1049F8004FF0000BB9F800E006FA0BF3DC4442462E
:104A0800A64413F400436146704618D0FBF738FCFF
:104A18000BF1010B2B78B7F800C05B45EAD895F885
:104A280001E001347445DDD30CEB030401983C80AC
:104A380003B0BDE8F08F002003B0BDE8F08F1A4640
:104A48000BF1010BFBF71CFC2B78B7F800C09B455A
:104A5800D0D3E4E748A8032044A2032070B5044655
:104A6800007870B10E46154602E014F8010F40B107
:104A78002A463146FFF798FF23789842F5D0184622
:104A880070BD0023184670BDF0B50F46144683B0BC
:104A980005463C44FEF7A8FE241AFEF7A5FE2B4A5D
:104AA80001372B681268C2F3CB3204FB02F2019281
:104AB80005D1986810F08000FBD103B0F0BD064620
:104AC800986810F08000F8D0FEF78EFE801BA04298
:104AD80011D20199019B2A68002903F1FF3308BF0D
:104AE80000240193936813F0800321D0FEF77CFE25
:104AF800801BA042EDD3D5E900315A68B1F5827F19
:104B080022F0E0025A6015D0AA6AB2F5005F07D118
:104B18001A6822F400521A601A6842F400521A60A5
:104B280001220023032085F85D2085F85C30C4E766
:104B38001846C2E7AA68B2F5004F02D0B2F5806FF6
:104B4800E2D11A6822F040021A60DDE76400012011
:104B58002DE9F0410E46154682B00023354407463C
:104B68008DF80330FEF740FE2D1AFEF73DFE324B5E
:104B780001363C681B6803EB8303C3EBC3034FEAAE
:104B8800135305FB03F3019306D00DE0237BDBB23F
:104B98008DF803309DF80330A36813F4C06FF5D186
:104BA800002002B0BDE8F081A368804613F4C06F0E
:104BB8000DD1F5E7019A019B002A3A6803F1FF330A
:104BC80008BF00250193936813F4C06FE8D0237BD6
:104BD800DBB28DF803309DF80330FEF705FEA0EB3D
:104BE8000800A842E6D3D7E900315A68B1F5827FB8
:104BF80022F0E0025A6013D0BA6AB2F5005F07D11A
:104C08001A6822F400521A601A6842F400521A60B4
:104C180001220023032087F85D2087F85C30C0E775
:104C2800BA68B2F5004F02D0B2F5806FE4D11A68C5
:104C380022F040021A60DFE7640001204368B3F500
:104C4800827F70B582B018D0254B4FF47A7225490F
:104C58001B68A1FB03135B0D02FB03F3019306E042
:104C6800019B0268013B019393681B0602D5019BD7
:104C7800002BF5D1002002B070BD8368B3F5004F5A
:104C880020D0B3F5806F1DD015460C460646FFF7B9
:104C9800FBFE88B97368B3F5827FEBD1B368B3F5CF
:104CA800004F02D0B3F5806FE4D12A462146304642
:104CB800FFF74EFF0028DDD0336E032043F02003BA
:104CC8003366D8E7046815460646236823F0400390
:104CD80023600C46FFF7D8FE0028DBD0ECE700BFC6
:104CE80064000120819F5E162DE9F0430C461546AD
:104CF80085B00023DFF8388167198DF8073006463C
:104D0800FEF772FD3F1AFEF76FFDD8F80030611C00
:104D1800326803EB8303C3EBC3034FEA135307FB68
:104D280003F3039326D1936813F4C05FFBD13F4983
:104D38004FF47A70D8F80030A1FB031371685B0D4B
:104D4800B1F5827F00FB03F3029306D153E0029B87
:104D5800013B029393681B0602D5029B002BF6D1F8
:104D68002A4621463046FFF7F3FE00284AD105B00F
:104D7800BDE8F0839368814613F4C05FD7D0FEF78F
:104D880033FDA0EB0900874212D90399039B3268CF
:104D9800002903F1FF3308BF00270393936813F436
:104DA800C05FC4D0FEF720FDA0EB09008742ECD815
:104DB800D6E900315A68B1F5827F22F0E0025A60E4
:104DC80028D0B26AB2F5005F07D11A6822F40052FF
:104DD8001A601A6842F400521A6001230022032064
:104DE80086F85D30336E86F85C2043F02003336626
:104DF80005B0BDE8F0832A4621463046FFF744FE59
:104E08000028ADD0336E032043F02003336605B08D
:104E1800BDE8F083B268B2F5004F02D0B2F5806FFA
:104E2800CFD11A6822F040021A60CAE7819F5E1645
:104E380064000120002874D0426A2DE9F041002A5C
:104E48005FD00023C0E90433002190F85D300446A8
:104E5800816203F0FF01002B5DD0E6680223216820
:104E6800B6F5E06F84F85D3026F400600B688CBFFF
:104E780000274FF4805723F04003B0F5E06F0B6034
:104E880045D1A36A03F40055A06802F0100C6368CA
:104E980006F47066626B00F4044803F482732069B8
:104EA800D4F818E002F0080243EA080300F0020010
:104EB80032434FEA1E460343606906F004060EF4C7
:104EC800007E00F001003243E6690343206A06F0E1
:104ED800380642EA0C0243EA0E0300F080003A4327
:104EE800012733430026034330462B430B604A60B7
:104EF800CB6923F40063CB61266684F85D70BDE856
:104F0800F0814368B3F5827F9ED0C2619CE700239D
:104F18001D46A362B8E780F85C1000F049FC626A9D
:104F28009BE70120704700BFF8B590F85C40012C62
:104F380076D0044690F85D000125C0B284F85C5034
:104F4800A8420DD06568B5F5827F04D00220002301
:104F580084F85C30F8BDA568002DF7D10428F5D198
:104F6800002B18BF002A59D0002957D094F85D00AB
:104F7800042802D0052084F85D0000202568A1637C
:104F88002066E668E387A4F84630B6F5E06F6968FE
:104F9800A38721F4C0412264A4F84430C4E9130073
:104FA8006960A06D47D96B6823F480536B6094F8EF
:104FB8005D30042B5FD04149414BC0E90F31414F6F
:104FC8000026B4F8463005F10C01C0E91376FEF767
:104FD800F3F9014630BB2368656D5E6803F10C0286
:104FE800284646F001065E60E38FC5E90F11C5E962
:104FF8001311A16BFEF7E0F9A0B923681A685206ED
:1050080003D41A6842F040021A605A6842F020023B
:105018005A605A6842F002025A6098E7012096E7FF
:105028000220F8BD236E012243F0100310462366C8
:1050380084F85D208BE7666D6968B66941F4805134
:10504800B6F5005F69601BD08369B3F5005FAED128
:105058006B6823F480536B60B4F8463013F0010F8B
:105068006B6818D123F400536B60B4F846305B08C2
:10507800A4F846309BE71449144BC0E90F319EE76A
:1050880013F0010F6B6810D123F480436B60E38F3A
:105098005B08E387D8E743F400536B60B4F8463005
:1050A8005B080133A4F8463081E743F480436B6022
:1050B800E38F5B080133E387C6E700BF4D52000862
:1050C800ED5200085D5200083D5200088152000868
:1050D8002DE9F041866804460D461EB94368B3F5CC
:1050E800827F69D094F85C30012B70D0012194F84C
:1050F8005D308B4284F85C1005D00220002384F8D0
:105108005C30BDE8F081002D5FD0B2FA82F35B0914
:10511800002B5AD10421B6F5004F256484F85D10A0
:10512800A4F844202366A387A4F846202068E387D0
:10513800C4E9133337D04268E16822F40052A36D02
:10514800B1F5E06F4260426829D8996942F480520B
:10515800B1F5005F426046D0DFF8CCC00026304F82
:105168002A46304D00F10C011E651846DD64C3E97E
:105178000F7CB4F84630FEF71FF958BB23681A684D
:10518800520603D41A6842F040021A605A6842F084
:1051980020025A605A6842F001025A60AEE722F4CF
:1051A80080524260D8E7036823F040030360036835
:1051B80023F480430360BEE7042613460A4680F8BA
:1051C8005D60BDE8F041FFF7AFBE012096E7022021
:1051D800BDE8F081236E012243F0100310462366D8
:1051E80084F85D208AE7426822F480524260B4F86D
:1051F800462012F0010F426808D122F400524260A2
:10520800B4F846205208A4F84620A5E742F4005214
:105218004260B4F8462052080132A4F846209BE7C1
:10522800815200085D5200083D520008704700BFD7
:10523800704700BF08B5806BFFF7FAFF08BD00BFD5
:10524800704700BF08B5806BFFF7FAFF08BD00BFC5
:10525800704700BF836B196818464A6822F003023A
:1052680010B54A6001241A6E42F010021A6683F8DB
:105278005D40FFF7EDFF10BD38B50546846BFEF7BE
:10528800B3FA2B681B68DB0518D42368A268596831
:1052980021F020015960C2B1596821F0010159601B
:1052A800024664212046FFF7C9FC58B901230022B1
:1052B800A4F8462084F85D30236E7BB92046FAF7BF
:1052C800F5FF38BD20232366F0E76268B2F5827FD8
:1052D800E2D15A6822F003025A60E1E72046FFF75C
:1052E800B7FF38BD38B50546846BFEF77DFA2B68E5
:1052F8001B68DB051CD425680246642120466B68C0
:1053080023F020036B60FFF7EFFC18B1236E43F026
:10531800200323662168002201204B6823F0030341
:105328004B60E287A4F8462084F85D00236E1BB921
:105338002046FFF77BFF38BD2046FFF789FF38BDC1
:105348000268014630B5556885B09368C3F3801488
:105358002CB913F0010F02D015F0400F7ED1980739
:1053680001D5280674D4C3F3401000284ED0A806EF
:105378004AD5002C7CD091F85D00032870D0086EC7
:105388000024C3F3002340F0040008660094D068AA
:105398000090906800900098086E002440F001008A
:1053A8000866029490680290106820F0400010602F
:1053B8000298002B42D10B6E33B353680C46AD07ED
:1053C8004FF0010123F0E003536084F85D1052D0E0
:1053D8005368A16D23F00303536049B1284B084675
:1053E8000B65FEF72FF818B1236E43F040032366D0
:1053F800636D4BB1224A18461A65FEF723F818B1B7
:10540800236E43F04003236605B030BD94B1AC066B
:10541800FAD591F85D40032C22D00C6EC3F300231B
:1054280044F004040C660090D068009090680090E6
:105438000098BEE7DC05E7D5AB06E5D50B6E002086
:1054480043F008030B66039093680393039BB2E74A
:105458000B6D084605B0BDE830401847C36CF9E746
:1054680000230193D368019393680193019BCBE7D1
:10547800C3F3002390E72046FFF7EAFEC4E700BF26
:105488008D54000808B50022836BA3F846201846FF
:10549800DA87FFF7DDFE08BD2DE9F043684B8FB0D2
:1054A8000024DFF8A891674D4FF481410994224602
:1054B800089400260C940027DFF89481CDE90A446B
:1054C800186B40F0100C4846C3F830C0D3F830C011
:1054D8000CF0100CCDF800C0DDF800C0D3F830C0D7
:1054E8004CF0040CC3F830C0D3F830C00CF0040CF6
:1054F800CDF804C0DDF804C0D3F830C04CF0200C5F
:10550800C3F830C0D3F830C00CF0200CCDF808C078
:10551800DDF808C0D3F830C04CF0800CC3F830C0B8
:10552800D3F830C00CF0800CCDF80CC0DDF80CC0FE
:10553800D3F830C04CF0010CC3F830C0D3F830C0F9
:105548000CF0010CCDF810C0DDF810C0D3F830C055
:105558004CF0020CC3F830C0D3F830C00CF0020C89
:10556800CDF814C0DDF814C0D3F830C04CF0080CE6
:10557800C3F830C0D3F830C00CF0080CCDF818C010
:10558800DDF818C0D3F830C04CF0400CC3F830C078
:105598001B6B03F040030793079BFDF753FE22465E
:1055A80028464021FDF74EFE4FF400524FF4881371
:1055B80008A940460A94CDE90823FDF721FD4FF4D8
:1055C80080724FF4041308A91F480A94CDE90823F0
:1055D800FDF716FD4FF481420123484608A9CDE99D
:1055E8000823CDE90A67FDF70BFD4022012308A92E
:1055F8002846CDE90823CDE90A67FDF701FD802299
:105608000023284608A90A94CDE90823FDF7F8FCE9
:1056180002234FF4007208A940460C94CDE90823F0
:10562800CDE90A67FDF7ECFC224621461720FEF774
:1056380043F81720FEF776F80FB0BDE8F08300BFF7
:1056480000380240001802400014024000040240E2
:105658000008024008B5064B064A18461A60FFF7CC
:105668004FF900B908BDBDE80840FAF7D7BF00BF39
:1056780028B303200008065010B5A2B004468422BF
:10568800002101A800F0A8FA2268114B9A4201D023
:1056980022B010BD4FF4001301A80193FDF716FACC
:1056A80098B90C4B002250205C6B114644F0400422
:1056B8005C635B6B03F040030093009BFDF7FCFF0A
:1056C8005020FEF72FF822B010BDFAF7A7FFE8E741
:1056D800000806500038024038B50F4A4FF4806081
:1056E8000E4B4FF4E065012407211A6000229860F0
:1056F8001846DD605C61D9625A601A619A619A62E3
:10570800C3E90822C3E90C22FFF794FB00B938BDAE
:10571800BDE83840FAF782BF003C00405CB4032083
:1057280038B50F4800220F4B4FF480654FF4E06402
:10573800072118601846D9625A609A619A62C3E9CB
:105748000254C3E90422C3E90822C3E90C22FFF783
:1057580071FB00B938BDBDE83840FAF75FBF00BF3C
:1057680000340140C0B4032038B50F4800220F4B65
:105778004FF480654FF4E064072118601846D96239
:105788005A609A619A62C3E90254C3E90422C3E9E0
:105798000822C3E90C22FFF74DFB00B938BDBDE86C
:1057A8003840FAF73BBF00BF0050014038B3032030
:1057B800804A03682DE9F04393428FB04FF000040C
:1057C8000546CDE90844CDE90A440C9409D07A4A43
:1057D80093425FD0794A934200F09F800FB0BDE8B2
:1057E800F083774B4FF40046022103201A6C0627FA
:1057F8004FF4A0584FF0020932431A641A6C324031
:105808000192019A1A6B42F001021A631A6B02F0B4
:1058180001020292029A1A6B42F004021A631B6B8D
:10582800099108A903F004030B90664803930896AE
:10583800039B0C97FDF7E4FB00220323624E08A9A3
:1058480062480C97CDE90A23CDE90889FDF7D8FB12
:105858005F494FF480624FF480733046F4603160E2
:105868003261F361C6E90144C6E90544C6E9084462
:10587800FDF702FD002840F093800022AE6533203A
:10588800B5631146FDF718FF3320FDF74BFF0FB046
:10589800BDE8F0834A4B0226032054275A6C08A916
:1058A80042F400525A645A6C02F400520492049A68
:1058B8001A6B42F010021A6305221B6B099603F05B
:1058C8001003444E0B90059343480897059B0C9290
:1058D800FDF796FB414F4FF000614FF480624FF4A3
:1058E800807330463261F361C6E90244C6E9054473
:1058F800C6E90844C6E90071FDF7BEFC002852D18C
:105908000022AE655420B5631146FDF7D5FE54203C
:10591800FDF708FF0FB0BDE8F083294B02260320EE
:105928004FF430775A6C08A942F480125A645A6CC2
:1059380002F480120692069A1A6B42F020021A6349
:1059480005221B6B099603F02003254E0B90079345
:1059580024480897079B0C92FDF752FB224F4FF003
:1059680080614FF480624FF440333046F4617462D2
:1059780032613362C6E90244C6E90544C6E90071EA
:10598800FDF77AFC90B90022AE655520B563114643
:10599800FDF792FE5520FDF7C5FE0FB0BDE8F08378
:1059A800FAF73CFE69E7FAF739FEA9E7FAF736FE97
:1059B800E9E700BF003C00400034014000500140CE
:1059C800003802400000024024B5032000080240CD
:1059D80010600240FCB30320001002401064024033
:1059E8009CB30320001402405864024038B50C4BA5
:1059F80000224FF4E1340B4D0C2118461A6159610D
:105A0800C3E90054C3E90222C3E90622C3E9082214
:105A1800FEF72CF900B938BDBDE83840FAF7FEBDED
:105A280084B503200048004070B50023A8B00446A0
:105A38008422194607A80693CDE90233CDE9043339
:105A480000F0CAF82268194B9A4201D028B070BDFC
:105A58004FF4807307A80793FDF738F818BB144B69
:105A680002204FF4407602A91A6C0025032442F460
:105A780080221A641A6C02F480220092009A1A6B2F
:105A880042F008021A6307221B6B039003F0080315
:105A9800084802960193019B0692CDE90454FDF74C
:105AA800AFFA28B070BDFAF7B9FDD8E70048004052
:105AB80000380240000C0240174B00220B20114610
:105AC80010B51C6B82B044F480041C631C6B04F496
:105AD80080040094009C1C6B44F400141C631B6B32
:105AE80003F400130193019BFDF7E6FD0B20FDF77E
:105AF80019FE002238201146FDF7DEFD3820FDF79B
:105B080011FE00223B201146FDF7D6FD3B2002B0D6
:105B1800BDE81040FDF706BE00380240DFF834D07B
:105B28000D480E490E4A002302E0D458C4500433ED
:105B3800C4188C42F9D30B4A0B4C002301E01360C4
:105B48000432A242FBD3FEF7E3F800F011F8FAF7AB
:105B58006FFC704700000520000001200C020120A6
:105B68008C6800080C02012018B60320FEE700002C
:105B780070B50D4D0D4C641BA4100026A64209D12A
:105B88000B4D0C4C00F06CFA641BA4100026A642C6
:105B980005D170BD55F8043B98470136EEE755F836
:105BA800043B98470136F2E78468000884680008D7
:105BB8008468000888680008024B0146186800F0ED
:105BC80061B800BFA8010120024B0146186800F027
:105BD8000BB800BFA801012002440346934200D13C
:105BE800704703F8011BF9E738B50546002945D089
:105BF80051F8043C0C1F002BB8BFE41800F0ACF8B7
:105C08001F4A1368104633B9636014602846BDE81C
:105C1800384000F0A7B8A3420CD921686218934213
:105C280004BF1A685B68636004BF5218226004608E
:105C3800ECE713465A680AB1A242FAD9196858180B
:105C4800A0420BD120680144581882421960DDD166
:105C5800106852685A6001441960D7E702D90C23CA
:105C68002B60D3E7206821188A4204BF1168526864
:105C7800626004BF091821605C60C7E738BD00BFD7
:105C880034620120F8B5CD1C25F0030508350C2D2C
:105C980038BF0C25002D064601DBA94203D90C2389
:105CA80033600020F8BD00F057F821490A6814460F
:105CB8009CB9204F3B6823B92146304600F03CF898
:105CC80038602946304600F037F8431C23D10C23AE
:105CD8003360304600F046F8E3E723685B1B17D4CF
:105CE8000B2B03D923601C44256004E06368A2429F
:105CF8000CBF0B605360304600F034F804F10B0021
:105D0800231D20F00700C21ACCD01B1AA350C9E7E4
:105D180022466468CCE7C41C24F00304A042E3D004
:105D2800211A304600F008F80130DDD1CFE700BF76
:105D3800346201203862012038B5064C002305463C
:105D48000846236000F016F8431C02D1236803B10B
:105D58002B6038BD08B60320014800F009B800BF21
:105D680010B60320014800F004B800BF10B60320A5
:105D780070477047044A05491368002B08BF0B4653
:105D880018441060184670473C62012018B603207A
:105D98002DE9F047089E04468846002B40F0858090
:105DA8008A42154648D9B2FA82F24AB1C2F12007AE
:105DB80001FA02F320FA07F7954047EA03089440EE
:105DC8004FEA154E230CB8FBFEF71FFA85FC0EFBB5
:105DD800178843EA084307FB0CF1994209D9EB18E5
:105DE80007F1FF3080F0E380994240F2E080023F03
:105DF8002B445B1AA4B2B3FBFEF00EFB103344EA4B
:105E0800034400FB0CFCA44509D92C1900F1FF330D
:105E180080F0CB80A44540F2C88002382C4440EA88
:105E28000740A4EB0C0400271EB1D4400023C6E9A8
:105E380000433946BDE8F087002A53D0B2FA82F20F
:105E4800002A40F0B680491B4FEA154E1FFA85F824
:105E58000127B1FBFEFC230C0EFB1C1143EA014396
:105E680008FB0CF1994207D9EB180CF1FF3002D26C
:105E7800994200F2EC808446591AA3B2B1FBFEF0B5
:105E88000EFB101443EA044408FB00F8A04507D9A8
:105E98002C1900F1FF3302D2A04500F2DC8018462D
:105EA800A4EB080440EA0C40BEE78B4208D9002E58
:105EB80078D00027C6E9000138463946BDE8F087A2
:105EC800B3FA83F77FB98B4202D3824200F2BD80D6
:105ED800841A61EB030301209846002EA9D0C6E975
:105EE8000048A6E7FFDEC7F12005BB4022FA05FC03
:105EF8004CEA030C01FA07F420FA05F821FA05F335
:105F08004FEA1C4E48EA0404B3FBFEF9210C0EFBD1
:105F180019331FFA8CF841EA034309FB08FA9A453A
:105F280002FA07F200FA07F10BD91CEB030309F197
:105F3800FF3080F088809A4540F28580A9F10209F7
:105F48006344A3EB0A03A4B2B3FBFEF00EFB1033C9
:105F580044EA034400FB08F8A04508D91CEB0404F4
:105F680000F1FF336BD2A04569D90238644440EA96
:105F78000940A4EB0804A0FB02894C45C6464B46E1
:105F880054D351D0002E69D0B1EB0E0264EB030458
:105F980004FA05F522FA07F3FC401D43C6E900544C
:105FA800002746E73746304643E7184637E70746AF
:105FB8001FE7C2F1200320FA03F7954001FA02F027
:105FC80021FA03F34FEA154E3843010CB3FBFEF7F1
:105FD8001FFA85F80EFB173341EA034107FB08F364
:105FE8008B4204FA02F407D9691807F1FF3C28D25A
:105FF8008B4226D9023F2944CB1A81B2B3FBFEF06B
:106008000EFB103341EA034100FB08F38B4207D92A
:10601800691800F1FF3C10D28B420ED9023829448E
:10602800C91A40EA074714E74145ABD2B8EB020E5C
:1060380069EB0C0201381346A4E76046F0E71846FE
:1060480095E76746D8E781467BE7384645E7ACF1F0
:10605800020C2B4410E702382C4421E73746E8E6C7
:10606800F8B500BFF8BC08BC9E467047F8B500BF3D
:08607800F8BC08BC9E4670470D
:1060800048656C6C6F20576F726C6421205A5820E1
:10609000537065637472756D2100000043444320A2
:1060A000436F6E666967000043444320496E746520
:1060B000726661636500000053544D6963726F65D9
:1060C0006C656374726F6E696373000053544D3373
:1060D000322055564300000000030103000610164D
:1060E0000006101601040208001010100410101011
:1060F0000210101008000000000000000000000066
:10610000010203040607080900000000010203045D
:10611000000000000000000000000000000000007F
:10612000000000000010001000100010001000100F
:1061300000000010000000000028002800280000D7
:106140000000000000000000000000000024002407
:10615000007C00240048007C00480048000000004B
:106160000038005400500038001400540054003827
:106170000010000000200054005800300028005497
:106180000014000800000000001000280028001083
:1061900000340048004800340000000000100010E7
:1061A00000100000000000000000000000000000DF
:1061B0000008001000200020002000200020002007
:1061C0000010000800200010000800080008000867
:1061D00000080008001000200010003800100028FF
:1061E00000000000000000000000000000000000AF
:1061F00000100010007C00100010000000000000E3
:10620000000000000000000000000000000000107E
:106210000010001000000000000000000000003826
:10622000000000000000000000000000000000006E
:10623000000000000000001000000000000800083E
:1062400000100010001000100020002000000000CE
:106250000038004400440054004400440044003826
:10626000000000000010003000500010001000106E
:10627000001000100000000000380044004400043A
:10628000000800100020007C0000000000380044DE
:10629000000400180004000400440038000000005E
:1062A00000080018002800280048007C00080008AA
:1062B00000000000007C0040004000780004000462
:1062C000004400380000000000380044004000781E
:1062D000004400440044003800000000007C00043A
:1062E0000008001000100020002000200000000026
:1062F00000380044004400380044004400440038A2
:10630000000000000038004400440044003C000449
:1063100000440038000000000000000000100000F1
:10632000000000000000001000000000000000005D
:10633000000000100000000000000010001000101D
:1063400000000000000C003000400030000C000095
:1063500000000000000000000000007C0000007C45
:1063600000000000000000000000000000600018B5
:106370000004001800600000000000000038004425
:1063800000040008001000100000001000000000D1
:1063900000380044004C0054005C004000400038CD
:1063A0000000000000100028002800280028007CC1
:1063B00000440044000000000078004400440078DD
:1063C000004400440044007800000000003800440D
:1063D0000040004000400040004400380000000041
:1063E000007000480044004400440044004800702D
:1063F00000000000007C00400040007C00400040A5
:106400000040007C00000000007C0040004000785C
:106410000040004000400040000000000038004400
:1064200000400040005C00440044003800000000D0
:10643000004400440044007C004400440044004404
:1064400000000000003800100010001000100010C4
:1064500000100038000000000004000400040004E4
:10646000000400040044003800000000004400481C
:106470000050006000500048004800440000000048
:106480000040004000400040004000400040007CD0
:10649000000000000044006C006C00540044004404
:1064A0000044004400000000004400640064005404
:1064B0000054004C004C0044000000000038004430
:1064C0000044004400440044004400380000000040
:1064D0000078004400440044007800400040004040
:1064E0000000000000380044004400440044004420
:1064F00000540038000400000078004400440044C8
:1065000000780048004800440000000000380044C3
:106510000040003000080004004400380000000083
:10652000007C00100010001000100010001000107F
:1065300000000000004400440044004400440044C3
:1065400000440038000000000044004400440028DB
:106550000028002800100010000000000044004443
:10656000005400540054006C002800280000000073
:1065700000440028002800100010002800280044D3
:106580000000000000440044002800280010001013
:106590000010001000000000007C00040008001043
:1065A000001000200040007C0000000000180010D7
:1065B0000010001000100010001000100010001853
:1065C000002000200010001000100010000800083B
:1065D000000000000030001000100010001000103B
:1065E00000100010001000300010002800280044A7
:1065F000000000000000000000000000000000009B
:10660000000000000000000000000000000000FE8C
:10661000002000100000000000000000000000004A
:10662000000000000000000000380044003C00446E
:10663000004C00340000000000400040005800649E
:106640000044004400640058000000000000000006
:1066500000380044004000400044003800000000C2
:10666000000400040034004C00440044004C00349A
:10667000000000000000000000380044007C0040E2
:106680000044003800000000000C0010007C0010E6
:1066900000100010001000100000000000000000BA
:1066A0000034004C00440044004C003400040078E6
:1066B000004000400058006400440044004400448E
:1066C000000000000010000000700010001000101A
:1066D000001000100000000000100000007000100A
:1066E0000010001000100010001000E000400040FA
:1066F00000480050006000500048004400000000C6
:1067000000700010001000100010001000100010A9
:106710000000000000000000007800540054005405
:106720000054005400000000000000000058006405
:106730000044004400440044000000000000000049
:1067400000380044004400440044003800000000C9
:106750000000000000580064004400440064005839
:1067600000400040000000000034004C00440044A1
:10677000004C0034000400040000000000580064D5
:106780000040004000400040000000000000000009
:1067900000380044003000080044003800000000C9
:1067A0000020002000780020002000200020001899
:1067B00000000000000000000044004400440044C9
:1067C000004C0034000000000000000000440044C1
:1067D0000028002800280010000000000000000031
:1067E000005400540054006C0028002800000000F1
:1067F00000000000004400280010001000280044A1
:1068000000000000000000000044004400280028B0
:10681000001000100010006000000000007C000864
:10682000001000200040007C000000000018001054
:1068300000100010002000200010001000100018B0
:1068400000100010001000100010001000100010C8
:1068500000100010003000100010001000080008A8
:106860000010001000100030000000000000007454
:0C687000004C00000000000000000000D0
:08687C001CF5FF7F0100000084
:0468840065020008A1
:046888003D020008C5
:10688C00710700087D07000895070008B10700088C
:10689C0005080008CD070008E9070008890700086B
:1068AC00050F0C000107100202000000120101028A
:1068BC000202004083044057000201020301000061
:1068CC00040309041A03000000000000000000008B
:1068DC0000000000000000000000000000000100AB
:1068EC00100000000024F400254600086146000852
:1068FC00F947000800000000114600088146000816
:10690C0015460008C1470008000000000000000008
:10691C00ED470008194600080000000000000000C8
:10692C000902A7000201118032080B00020E0300BD
:10693C001209040000000E0100130D2401000127B0
:10694C0000808D5B00010111240201010200140082
:10695C0000000000000200000924030201010001F4
:10696C001509040100000E0200160E2401014D0051
:10697C0081000200010001001B240401017DEB36A3
:10698C00E44F52CE119F530020AF0BA7701801009B
:10699C000000001E240501010001C00000003804A5
:1069AC0000003804004002000A8B0200010A8B022E
:1069BC000006240D01010409040101010E02001757
:1069CC000705810100040100000001010A8B02008F
:1069DC000000000000000000000000400200000069
:1069EC000000000000000000000000000000010199
:1069FC000A8B0200000000000000000000000040B4
:106A0C000200000000000000000000000000000078
:106A1C00DD48000805490008E5480008E148000881
:106A2C00070A000010610008AC0101200000000002
:106A3C00000000000000000000000000000000004A
:106A4C00000000000000000000000000000000003A
:106A5C00000000000000000000000000000000002A
:106A6C00000000000000000000000000000000001A
:106A7C00000000000000000000000000000000000A
:0C6A8C00000000000000000000000000FE
:0400000508005B256F
:00000001FF
